{"contracts/MediProof.sol":{"MediProof":{"abi":[{"inputs":[],"name":"AlreadyRecalled","type":"error"},{"inputs":[],"name":"AlreadyRegistered","type":"error"},{"inputs":[],"name":"AlreadyReported","type":"error"},{"inputs":[{"internalType":"string","name":"batchId","type":"string"}],"name":"BatchAlreadyExists","type":"error"},{"inputs":[{"internalType":"string","name":"batchId","type":"string"}],"name":"BatchDoesNotExist","type":"error"},{"inputs":[{"internalType":"string","name":"field","type":"string"}],"name":"EmptyField","type":"error"},{"inputs":[],"name":"ExpiryInPast","type":"error"},{"inputs":[],"name":"NotBatchManufacturer","type":"error"},{"inputs":[],"name":"NotRegisteredManufacturer","type":"error"},{"inputs":[],"name":"Unauthorized","type":"error"},{"anonymous":false,"inputs":[{"indexed":true,"internalType":"string","name":"batchId","type":"string"},{"indexed":true,"internalType":"address","name":"manufacturer","type":"address"},{"indexed":false,"internalType":"uint256","name":"timestamp","type":"uint256"}],"name":"BatchRecalled","type":"event"},{"anonymous":false,"inputs":[{"indexed":true,"internalType":"string","name":"batchId","type":"string"},{"indexed":true,"internalType":"address","name":"manufacturer","type":"address"},{"indexed":false,"internalType":"string","name":"ipfsHash","type":"string"},{"indexed":false,"internalType":"uint256","name":"expiryDate","type":"uint256"},{"indexed":false,"internalType":"uint256","name":"timestamp","type":"uint256"}],"name":"BatchRegistered","type":"event"},{"anonymous":false,"inputs":[{"indexed":true,"internalType":"string","name":"batchId","type":"string"},{"indexed":true,"internalType":"address","name":"reporter","type":"address"},{"indexed":false,"internalType":"string","name":"reason","type":"string"},{"indexed":false,"internalType":"uint256","name":"timestamp","type":"uint256"}],"name":"BatchReported","type":"event"},{"anonymous":false,"inputs":[{"indexed":true,"internalType":"string","name":"batchId","type":"string"},{"indexed":false,"internalType":"uint256","name":"reportCount","type":"uint256"},{"indexed":false,"internalType":"uint256","name":"timestamp","type":"uint256"}],"name":"BatchSuspicious","type":"event"},{"anonymous":false,"inputs":[{"indexed":true,"internalType":"string","name":"batchId","type":"string"},{"indexed":true,"internalType":"address","name":"recorder","type":"address"},{"indexed":false,"internalType":"string","name":"location","type":"string"},{"indexed":false,"internalType":"uint256","name":"timestamp","type":"uint256"}],"name":"CheckpointAdded","type":"event"},{"anonymous":false,"inputs":[{"indexed":true,"internalType":"address","name":"wallet","type":"address"},{"indexed":false,"internalType":"string","name":"name","type":"string"},{"indexed":false,"internalType":"string","name":"licenseNumber","type":"string"},{"indexed":false,"internalType":"uint256","name":"timestamp","type":"uint256"}],"name":"ManufacturerRegistered","type":"event"},{"inputs":[],"name":"SUSPICIOUS_THRESHOLD","outputs":[{"internalType":"uint256","name":"","type":"uint256"}],"stateMutability":"view","type":"function"},{"inputs":[{"internalType":"string","name":"batchId","type":"string"},{"internalType":"string","name":"location","type":"string"},{"internalType":"string","name":"note","type":"string"}],"name":"addCheckpoint","outputs":[],"stateMutability":"nonpayable","type":"function"},{"inputs":[{"internalType":"string","name":"","type":"string"}],"name":"batches","outputs":[{"internalType":"address","name":"manufacturer","type":"address"},{"internalType":"bool","name":"isRecalled","type":"bool"},{"internalType":"uint88","name":"createdAt","type":"uint88"},{"internalType":"uint256","name":"expiryDate","type":"uint256"},{"internalType":"string","name":"batchId","type":"string"},{"internalType":"string","name":"ipfsHash","type":"string"}],"stateMutability":"view","type":"function"},{"inputs":[{"internalType":"string","name":"","type":"string"},{"internalType":"uint256","name":"","type":"uint256"}],"name":"checkpoints","outputs":[{"internalType":"address","name":"recorder","type":"address"},{"internalType":"uint96","name":"timestamp","type":"uint96"},{"internalType":"string","name":"location","type":"string"},{"internalType":"string","name":"note","type":"string"}],"stateMutability":"view","type":"function"},{"inputs":[{"internalType":"string","name":"batchId","type":"string"}],"name":"getBatch","outputs":[{"components":[{"internalType":"address","name":"manufacturer","type":"address"},{"internalType":"bool","name":"isRecalled","type":"bool"},{"internalType":"uint88","name":"createdAt","type":"uint88"},{"internalType":"uint256","name":"expiryDate","type":"uint256"},{"internalType":"string","name":"batchId","type":"string"},{"internalType":"string","name":"ipfsHash","type":"string"}],"internalType":"struct MediProof.Batch","name":"","type":"tuple"}],"stateMutability":"view","type":"function"},{"inputs":[{"internalType":"string","name":"batchId","type":"string"}],"name":"getBatchStatus","outputs":[{"internalType":"uint8","name":"","type":"uint8"}],"stateMutability":"view","type":"function"},{"inputs":[{"internalType":"string","name":"batchId","type":"string"}],"name":"getCheckpoints","outputs":[{"components":[{"internalType":"address","name":"recorder","type":"address"},{"internalType":"uint96","name":"timestamp","type":"uint96"},{"internalType":"string","name":"location","type":"string"},{"internalType":"string","name":"note","type":"string"}],"internalType":"struct MediProof.Checkpoint[]","name":"","type":"tuple[]"}],"stateMutability":"view","type":"function"},{"inputs":[{"internalType":"address","name":"wallet","type":"address"}],"name":"getManufacturer","outputs":[{"components":[{"internalType":"address","name":"wallet","type":"address"},{"internalType":"uint96","name":"registeredAt","type":"uint96"},{"internalType":"string","name":"name","type":"string"},{"internalType":"string","name":"licenseNumber","type":"string"}],"internalType":"struct MediProof.Manufacturer","name":"","type":"tuple"}],"stateMutability":"view","type":"function"},{"inputs":[{"internalType":"string","name":"batchId","type":"string"}],"name":"getReports","outputs":[{"components":[{"internalType":"address","name":"reporter","type":"address"},{"internalType":"uint96","name":"timestamp","type":"uint96"},{"internalType":"string","name":"batchId","type":"string"},{"internalType":"string","name":"reason","type":"string"}],"internalType":"struct MediProof.Report[]","name":"","type":"tuple[]"}],"stateMutability":"view","type":"function"},{"inputs":[{"internalType":"string","name":"","type":"string"},{"internalType":"address","name":"","type":"address"}],"name":"hasReported","outputs":[{"internalType":"bool","name":"","type":"bool"}],"stateMutability":"view","type":"function"},{"inputs":[{"internalType":"address","name":"wallet","type":"address"}],"name":"isManufacturer","outputs":[{"internalType":"bool","name":"","type":"bool"}],"stateMutability":"view","type":"function"},{"inputs":[{"internalType":"string","name":"batchId","type":"string"}],"name":"isSuspicious","outputs":[{"internalType":"bool","name":"","type":"bool"}],"stateMutability":"view","type":"function"},{"inputs":[{"internalType":"address","name":"","type":"address"}],"name":"manufacturers","outputs":[{"internalType":"address","name":"wallet","type":"address"},{"internalType":"uint96","name":"registeredAt","type":"uint96"},{"internalType":"string","name":"name","type":"string"},{"internalType":"string","name":"licenseNumber","type":"string"}],"stateMutability":"view","type":"function"},{"inputs":[{"internalType":"string","name":"batchId","type":"string"}],"name":"recallBatch","outputs":[],"stateMutability":"nonpayable","type":"function"},{"inputs":[{"internalType":"string","name":"batchId","type":"string"},{"internalType":"string","name":"ipfsHash","type":"string"},{"internalType":"uint256","name":"expiryDate","type":"uint256"}],"name":"registerBatch","outputs":[],"stateMutability":"nonpayable","type":"function"},{"inputs":[{"internalType":"string","name":"name","type":"string"},{"internalType":"string","name":"licenseNumber","type":"string"}],"name":"registerManufacturer","outputs":[],"stateMutability":"nonpayable","type":"function"},{"inputs":[{"internalType":"string","name":"batchId","type":"string"},{"internalType":"string","name":"reason","type":"string"}],"name":"reportBatch","outputs":[],"stateMutability":"nonpayable","type":"function"},{"inputs":[{"internalType":"string","name":"","type":"string"}],"name":"reportCount","outputs":[{"internalType":"uint256","name":"","type":"uint256"}],"stateMutability":"view","type":"function"},{"inputs":[{"internalType":"string","name":"","type":"string"},{"internalType":"uint256","name":"","type":"uint256"}],"name":"reports","outputs":[{"internalType":"address","name":"reporter","type":"address"},{"internalType":"uint96","name":"timestamp","type":"uint96"},{"internalType":"string","name":"batchId","type":"string"},{"internalType":"string","name":"reason","type":"string"}],"stateMutability":"view","type":"function"}],"evm":{"bytecode":{"linkReferences":{},"object":"6080806040523461001657611b14908161001c8239f35b600080fdfe608080604052600436101561001357600080fd5b60003560e01c90816317d4a491146113cd57508063191bcef61461135e5780631a68638a1461125f5780631d4a81e7146110375780632b9e3a6214610e7957806330b15caa14610d1e5780635296918714610bd9578063686f624e14610adf5780636b5eb09c14610a7d5780637c27d56d14610a615780637ef1446a146109b05780638d5c0a23146104f7578063958fc13a146104a2578063a465f7cd14610446578063cc6aae3514610416578063db0cc2c014610391578063ee6a6d0e14610300578063f9158e99146102825763f9ca4274146100f057600080fd5b3461027d5760208060031936011261027d576004356001600160401b03811161027d576101219036906004016114b8565b606060a060409493945161013481611584565b60008152600085820152600060408201526000838201528260808201520152604051928181853760018483019081528490038301909320546001600160a01b03939084161561025457908261025092826040519384928337810160018152030190209161023d604051936101a785611584565b805486811686526affffffffffffffffffffff8487019160ff8160a01c1615158352604088019060a81c8152600184015492606089019384526101ff60036101f1600288016115c0565b9660808c01978852016115c0565b9660a08a019788526040519a8b9a828c525116908a01525115156040890152511660608701525160808601525160c060a086015260e0850190611441565b9051838203601f190160c0850152611441565b0390f35b604051634f04653760e11b8152600481018490529182916102799160248401916119bb565b0390fd5b600080fd5b3461027d5760206102aa61029536611708565b9290816040519382858094519384920161141e565b8101600281520301902090815481101561027d576102c791611739565b5080546102506102e560026102de600186016115c0565b94016115c0565b60405193849360a081901c906001600160a01b031685611666565b3461027d57602036600319011261027d576004356001600160401b03811161027d576103309036906004016114b8565b6040518183823760018183019081528190036020019020546001600160a01b03161561036d5761036290602092611a5f565b60ff60405191168152f35b610279604051928392634f04653760e11b84526020600485015260248401916119bb565b3461027d57604036600319011261027d576004356001600160401b03811161027d576103c19036906004016116ed565b6024356001600160a01b038116919082900361027d5760206103f091816040519382858094519384920161141e565b8101600481520301902090600052602052602060ff604060002054166040519015158152f35b3461027d57602061042961029536611708565b8101600381520301902090815481101561027d576102c791611739565b3461027d57602036600319011261027d576004356001600160401b03811161027d5761048f602061047c819336906004016116ed565b816040519382858094519384920161141e565b8101600581520301902054604051908152f35b3461027d57602036600319011261027d576004356001600160401b03811161027d57600360206104d7819336906004016114b8565b919082604051938492833781016005815203019020541015604051908152f35b3461027d57606036600319011261027d576001600160401b0360043581811161027d576105289036906004016114b8565b60249291923582811161027d576105439036906004016114b8565b93909233600052600060205260018060a01b03903382604060002054160361099e57831561096e57851561093d5742604435111561092b57816040518585823760208187810160018152030190205416610908576040516105a381611584565b3381526020810160008152604082016affffffffffffffffffffff42168152606083019060443582526105d73689896116a7565b92608085019384526105ea368c8c6116a7565b60a0860152604051898982376020818b81016001815203019020968551169060ff60a01b9051151560a01b16916affffffffffffffffffffff60a81b905160a81b1691171785555160018501555180519083821161082d5761064f600286015461152f565b601f81116108c1575b50602090601f831160011461084e5760a093929160009183610843575b50508160011b916000199060031b1c19161760028501555b0151805191821161082d576106a5600384015461152f565b601f81116107e2575b50602090601f831160011461074e578261072c95937fd38066324d950e844ce76a93c064109a19f4c25b2d75f699b579d856dccd15b2979593600393600092610743575b50508160011b9160001990841b1c1916179101555b81604051928392833781016000815203902092604051946060865260608601916119bb565b9260443560208201524260408201528033940390a3005b015190508a806106f2565b90601f198316916003850160005260206000209260005b8181106107ca5750937fd38066324d950e844ce76a93c064109a19f4c25b2d75f699b579d856dccd15b29795936003936001938361072c9a98106107b2575b505050811b01910155610707565b015160001983861b60f8161c191690558a80806107a4565b92936020600181928786015181550195019301610765565b600384016000526020600020601f840160051c81019160208510610823575b601f0160051c01905b81811061081757506106ae565b6000815560010161080a565b9091508190610801565b634e487b7160e01b600052604160045260246000fd5b015190508a80610675565b906002860160005260206000209160005b601f19851681106108a9575091839160019360a09695601f19811610610890575b505050811b01600285015561068d565b015160001960f88460031b161c191690558a8080610880565b9192602060018192868501518155019401920161085f565b600286016000526020600020601f840160051c810160208510610901575b601f830160051c820181106108f5575050610658565b600081556001016108df565b50806108df565b604051631b047e7360e21b815260206004820152806102796024820187876119bb565b60405163079955a160e41b8152600490fd5b60405163a69290e760e01b81526020600482015260086024820152670d2e0cce690c2e6d60c31b6044820152606490fd5b60405163a69290e760e01b815260206004820152600760248201526618985d18da125960ca1b6044820152606490fd5b6040516327c648c360e01b8152600490fd5b3461027d57602036600319011261027d576004356001600160401b03811161027d57602061047c6109e59236906004016116ed565b810160018152030190208054610250600183015492610a53610a156003610a0e600285016115c0565b93016115c0565b9160405195869560018060a01b038116875260ff8160a01c161515602088015260a81c6040870152606086015260c0608086015260c0850190611441565b9083820360a0850152611441565b3461027d57600036600319011261027d57602060405160038152f35b3461027d57602036600319011261027d576001600160a01b0380610a9f611408565b166000526000602052604060002090610250825492610acc6002610ac5600184016115c0565b92016115c0565b906040519485948160a01c911685611666565b3461027d5760208060031936011261027d576004356001600160401b03811161027d57610b109036906004016114b8565b6040519291819084378201918181600394858152030190208054610b3381611a48565b93610b41604051958661159f565b8185528385018093600052846000206000915b848310610bb757604080518881528951818a01819052600092600582901b83018101918a918c9085015b828710610b8b5785850386f35b909192938280610ba7600193603f198a82030186528851611466565b9601920196019592919092610b7e565b8387600192610bc8859b9a9b611a01565b815201920192019190969596610b54565b3461027d5760208060031936011261027d576004356001600160401b03811161027d57610c0a9036906004016114b8565b9060405182828237600181840190815281900384019020546001600160a01b0390811615610cf857604051838382378481858101600181520301902054163303610ce65760ff60405183838237848185810160018152030190205460a01c16610cd45760405182828237600183820190815281900384019020805460ff60a01b1916600160a01b179055604051918291819083378101600081520390207f03068fe52a60a8da503a950b52784e0f6fdbca2245c2dc817cde96d74dbc1dd8604051924284523393a3005b60405163cffc9f8560e01b8152600490fd5b604051631cabf07160e11b8152600490fd5b50604051634f04653760e11b8152600481018490529182916102799160248401916119bb565b3461027d57610d2c366114e5565b9192908315610e4d578215610e1757336000818152602081905260409020546001600160a01b031614610e05577f4a9379aadad74a32f0c7cbe50dcc033680f93fd3dd8e57a1d6c4c2d2f13c010d92610de8610df693610dd6604051610d9181611569565b3381526001600160601b0342166020820152610dae368a856116a7565b6040820152610dbe3686886116a7565b6060820152336000526000602052604060002061176b565b604051966060885260608801916119bb565b9185830360208701526119bb565b914260408201528033930390a2005b604051630ea075bf60e21b8152600490fd5b60405163a69290e760e01b815260206004820152600d60248201526c3634b1b2b739b2a73ab6b132b960991b6044820152606490fd5b606460405163a69290e760e01b81526020600482015260046024820152636e616d6560e01b6044820152fd5b3461027d57606036600319011261027d576001600160401b0360043581811161027d57610eaa9036906004016114b8565b60249291923582811161027d57610ec59036906004016114b8565b909260443590811161027d57610edf9036906004016114b8565b92604051958181883760018783019081528790036020908101909720546001600160a01b031615611012578315610fe157610f5d60405183838237888185810160038152030190209360405196610f3588611569565b3388526001600160601b0342168a890152610f5136888b6116a7565b604089015236916116a7565b60608601528254600160401b81101561082d577f02f9762f2c7ba2b8db7a61486cdc8f2d18814743b9b56d3a3ff84064d13648dd95610fa882610fd3966001610fae95018155611739565b906119dc565b81604051928392833781016000815203902093604051926040845260408401916119bb565b9342908201528033940390a3005b60405163a69290e760e01b81526004810188905260086024820152673637b1b0ba34b7b760c11b6044820152606490fd5b604051634f04653760e11b8152600481018890529182916102799160248401916119bb565b3461027d57611045366114e5565b9290604051938383863760018585019081528590036020908101909520546001600160a01b03161561123c57801561120d57604051848482378581868101600481520301902033600052855260ff604060002054166111fb5760405184848237858186810160048152030190203360005285526040600020600160ff198254161790556040518484823785818681016005815203019020916001835401809355604051858582378681878101600281520301902060405161110581611569565b3381526001600160601b034216888201526111213688886116a7565b60408201526111313685856116a7565b6060820152815491600160401b83101561082d5782610fa891600161115895018155611739565b7ffd8432736bd96d6a42fa381b51b5e244a4c3a1498bdd2e09e1b3dfa4fc448dd86111a160405187878237808881016000815203902092604051946040865260408601916119bb565b9242888201528033940390a3600381146111b757005b826040927f8c8802901215474dbcbe3d9f475d04dbb3bbdefa007e57aaced8caf8b74c574994845192839283378101600081520390209382519182524290820152a2005b60405163770c15e360e01b8152600490fd5b60405163a69290e760e01b81526004810186905260066024820152653932b0b9b7b760d11b6044820152606490fd5b604051634f04653760e11b815260048101869052806102796024820187876119bb565b3461027d5760208060031936011261027d576004356001600160401b03811161027d57611291829136906004016114b8565b919082604051938492833781016002815203019020908154916112b383611a48565b926112c1604051948561159f565b8084528284018092600052836000206000915b83831061133b5750505050604051918083019381845251809452604083019360408160051b85010192916000955b82871061130f5785850386f35b90919293828061132b600193603f198a82030186528851611466565b9601920196019592919092611302565b60038660019261134d859a999a611a01565b8152019201920191909594956112d4565b3461027d57602036600319011261027d57611377611408565b60608060405161138681611569565b6000815260006020820152816040820152015260018060a01b031660005260006020526102506113b96040600020611a01565b604051918291602083526020830190611466565b3461027d57602036600319011261027d576020906001600160a01b03806113f2611408565b1690816000526000845260406000205416148152f35b600435906001600160a01b038216820361027d57565b60005b8381106114315750506000910152565b8181015183820152602001611421565b9060209161145a8151809281855285808601910161141e565b601f01601f1916010190565b6114b59160018060a01b0382511681526001600160601b03602083015116602082015260606114a46040840151608060408501526080840190611441565b920151906060818403910152611441565b90565b9181601f8401121561027d578235916001600160401b03831161027d576020838186019501011161027d57565b604060031982011261027d576001600160401b039160043583811161027d5782611511916004016114b8565b9390939260243591821161027d5761152b916004016114b8565b9091565b90600182811c9216801561155f575b602083101461154957565b634e487b7160e01b600052602260045260246000fd5b91607f169161153e565b608081019081106001600160401b0382111761082d57604052565b60c081019081106001600160401b0382111761082d57604052565b90601f801991011681019081106001600160401b0382111761082d57604052565b90604051918260008254926115d48461152f565b9081845260019485811690816000146116435750600114611600575b50506115fe9250038361159f565b565b9093915060005260209081600020936000915b81831061162b5750506115fe935082010138806115f0565b85548884018501529485019487945091830191611613565b9150506115fe94506020925060ff191682840152151560051b82010138806115f0565b926001600160601b036114b595936116999360018060a01b03168652166020850152608060408501526080840190611441565b916060818403910152611441565b9291926001600160401b03821161082d57604051916116d0601f8201601f19166020018461159f565b82948184528183011161027d578281602093846000960137010152565b9080601f8301121561027d578160206114b5933591016116a7565b604060031982011261027d57600435906001600160401b03821161027d57611732916004016116ed565b9060243590565b8054821015611755576000526003602060002091020190600090565b634e487b7160e01b600052603260045260246000fd5b815160208084015160a01b6001600160a01b0319166001600160a01b0392909216919091178255604083015180516001936001600160401b0393918186019085811161082d576117bb825461152f565b94601f95868111611975575b50849086831160011461190757918060029492606096946000926118fc575b5050600019600383901b1c191690891b1790555b0195015190815193841161082d57611812865461152f565b8381116118b6575b50809284116001146118535750928293918392600094611848575b50501b916000199060031b1c1916179055565b015192503880611835565b919083601f1981168760005284600020946000905b8883831061189c5750505010611883575b505050811b019055565b015160001960f88460031b161c19169055388080611879565b858701518855909601959485019487935090810190611868565b86600052816000208480870160051c8201928488106118f3575b0160051c019086905b8281106118e757505061181a565b600081550186906118d9565b925081926118d0565b0151905038806117e6565b889291601f1983169185600052876000209260005b8982821061195f5750509160609795939185600298969410611946575b505050811b0190556117fa565b015160001960f88460031b161c19169055388080611939565b8385015186558d9790950194938401930161191c565b60008481528681208880860160051c8201938987106119b2575b0160051c01918a905b8381106119a7575050506117c7565b828155018a90611998565b9350819361198f565b908060209392818452848401376000828201840152601f01601f1916010190565b91906119eb576115fe9161176b565b634e487b7160e01b600052600060045260246000fd5b90604051611a0e81611569565b6060611a4360028395805460018060a01b038116865260a01c6020860152611a38600182016115c0565b6040860152016115c0565b910152565b6001600160401b03811161082d5760051b60200190565b90600360405182848237602081848101600181520301902091602060ff6001850154421015945460a01c16948260405193849283378101600581520301902054101591611ad7578080611ad0575b611ac957611ac357611abe57600090565b600390565b50600190565b5050600490565b5081611aad565b505060029056fea264697066735822122097e8fef30dc9d6e600587fe4907571deb682df013ffaa40d0a519b4640f057c864736f6c63430008140033","opcodes":"PUSH1 0x80 DUP1 PUSH1 0x40 MSTORE CALLVALUE PUSH2 0x16 JUMPI PUSH2 0x1B14 SWAP1 DUP2 PUSH2 0x1C DUP3 CODECOPY RETURN JUMPDEST PUSH1 0x0 DUP1 REVERT INVALID PUSH1 0x80 DUP1 PUSH1 0x40 MSTORE PUSH1 0x4 CALLDATASIZE LT ISZERO PUSH2 0x13 JUMPI PUSH1 0x0 DUP1 REVERT JUMPDEST PUSH1 0x0 CALLDATALOAD PUSH1 0xE0 SHR SWAP1 DUP2 PUSH4 0x17D4A491 EQ PUSH2 0x13CD JUMPI POP DUP1 PUSH4 0x191BCEF6 EQ PUSH2 0x135E JUMPI DUP1 PUSH4 0x1A68638A EQ PUSH2 0x125F JUMPI DUP1 PUSH4 0x1D4A81E7 EQ PUSH2 0x1037 JUMPI DUP1 PUSH4 0x2B9E3A62 EQ PUSH2 0xE79 JUMPI DUP1 PUSH4 0x30B15CAA EQ PUSH2 0xD1E JUMPI DUP1 PUSH4 0x52969187 EQ PUSH2 0xBD9 JUMPI DUP1 PUSH4 0x686F624E EQ PUSH2 0xADF JUMPI DUP1 PUSH4 0x6B5EB09C EQ PUSH2 0xA7D JUMPI DUP1 PUSH4 0x7C27D56D EQ PUSH2 0xA61 JUMPI DUP1 PUSH4 0x7EF1446A EQ PUSH2 0x9B0 JUMPI DUP1 PUSH4 0x8D5C0A23 EQ PUSH2 0x4F7 JUMPI DUP1 PUSH4 0x958FC13A EQ PUSH2 0x4A2 JUMPI DUP1 PUSH4 0xA465F7CD EQ PUSH2 0x446 JUMPI DUP1 PUSH4 0xCC6AAE35 EQ PUSH2 0x416 JUMPI DUP1 PUSH4 0xDB0CC2C0 EQ PUSH2 0x391 JUMPI DUP1 PUSH4 0xEE6A6D0E EQ PUSH2 0x300 JUMPI DUP1 PUSH4 0xF9158E99 EQ PUSH2 0x282 JUMPI PUSH4 0xF9CA4274 EQ PUSH2 0xF0 JUMPI PUSH1 0x0 DUP1 REVERT JUMPDEST CALLVALUE PUSH2 0x27D JUMPI PUSH1 0x20 DUP1 PUSH1 0x3 NOT CALLDATASIZE ADD SLT PUSH2 0x27D JUMPI PUSH1 0x4 CALLDATALOAD PUSH1 0x1 PUSH1 0x1 PUSH1 0x40 SHL SUB DUP2 GT PUSH2 0x27D JUMPI PUSH2 0x121 SWAP1 CALLDATASIZE SWAP1 PUSH1 0x4 ADD PUSH2 0x14B8 JUMP JUMPDEST PUSH1 0x60 PUSH1 0xA0 PUSH1 0x40 SWAP5 SWAP4 SWAP5 MLOAD PUSH2 0x134 DUP2 PUSH2 0x1584 JUMP JUMPDEST PUSH1 0x0 DUP2 MSTORE PUSH1 0x0 DUP6 DUP3 ADD MSTORE PUSH1 0x0 PUSH1 0x40 DUP3 ADD MSTORE PUSH1 0x0 DUP4 DUP3 ADD MSTORE DUP3 PUSH1 0x80 DUP3 ADD MSTORE ADD MSTORE PUSH1 0x40 MLOAD SWAP3 DUP2 DUP2 DUP6 CALLDATACOPY PUSH1 0x1 DUP5 DUP4 ADD SWAP1 DUP2 MSTORE DUP5 SWAP1 SUB DUP4 ADD SWAP1 SWAP4 KECCAK256 SLOAD PUSH1 0x1 PUSH1 0x1 PUSH1 0xA0 SHL SUB SWAP4 SWAP1 DUP5 AND ISZERO PUSH2 0x254 JUMPI SWAP1 DUP3 PUSH2 0x250 SWAP3 DUP3 PUSH1 0x40 MLOAD SWAP4 DUP5 SWAP3 DUP4 CALLDATACOPY DUP2 ADD PUSH1 0x1 DUP2 MSTORE SUB ADD SWAP1 KECCAK256 SWAP2 PUSH2 0x23D PUSH1 0x40 MLOAD SWAP4 PUSH2 0x1A7 DUP6 PUSH2 0x1584 JUMP JUMPDEST DUP1 SLOAD DUP7 DUP2 AND DUP7 MSTORE PUSH11 0xFFFFFFFFFFFFFFFFFFFFFF DUP5 DUP8 ADD SWAP2 PUSH1 0xFF DUP2 PUSH1 0xA0 SHR AND ISZERO ISZERO DUP4 MSTORE PUSH1 0x40 DUP9 ADD SWAP1 PUSH1 0xA8 SHR DUP2 MSTORE PUSH1 0x1 DUP5 ADD SLOAD SWAP3 PUSH1 0x60 DUP10 ADD SWAP4 DUP5 MSTORE PUSH2 0x1FF PUSH1 0x3 PUSH2 0x1F1 PUSH1 0x2 DUP9 ADD PUSH2 0x15C0 JUMP JUMPDEST SWAP7 PUSH1 0x80 DUP13 ADD SWAP8 DUP9 MSTORE ADD PUSH2 0x15C0 JUMP JUMPDEST SWAP7 PUSH1 0xA0 DUP11 ADD SWAP8 DUP9 MSTORE PUSH1 0x40 MLOAD SWAP11 DUP12 SWAP11 DUP3 DUP13 MSTORE MLOAD AND SWAP1 DUP11 ADD MSTORE MLOAD ISZERO ISZERO PUSH1 0x40 DUP10 ADD MSTORE MLOAD AND PUSH1 0x60 DUP8 ADD MSTORE MLOAD PUSH1 0x80 DUP7 ADD MSTORE MLOAD PUSH1 0xC0 PUSH1 0xA0 DUP7 ADD MSTORE PUSH1 0xE0 DUP6 ADD SWAP1 PUSH2 0x1441 JUMP JUMPDEST SWAP1 MLOAD DUP4 DUP3 SUB PUSH1 0x1F NOT ADD PUSH1 0xC0 DUP6 ADD MSTORE PUSH2 0x1441 JUMP JUMPDEST SUB SWAP1 RETURN JUMPDEST PUSH1 0x40 MLOAD PUSH4 0x4F046537 PUSH1 0xE1 SHL DUP2 MSTORE PUSH1 0x4 DUP2 ADD DUP5 SWAP1 MSTORE SWAP2 DUP3 SWAP2 PUSH2 0x279 SWAP2 PUSH1 0x24 DUP5 ADD SWAP2 PUSH2 0x19BB JUMP JUMPDEST SUB SWAP1 REVERT JUMPDEST PUSH1 0x0 DUP1 REVERT JUMPDEST CALLVALUE PUSH2 0x27D JUMPI PUSH1 0x20 PUSH2 0x2AA PUSH2 0x295 CALLDATASIZE PUSH2 0x1708 JUMP JUMPDEST SWAP3 SWAP1 DUP2 PUSH1 0x40 MLOAD SWAP4 DUP3 DUP6 DUP1 SWAP5 MLOAD SWAP4 DUP5 SWAP3 ADD PUSH2 0x141E JUMP JUMPDEST DUP2 ADD PUSH1 0x2 DUP2 MSTORE SUB ADD SWAP1 KECCAK256 SWAP1 DUP2 SLOAD DUP2 LT ISZERO PUSH2 0x27D JUMPI PUSH2 0x2C7 SWAP2 PUSH2 0x1739 JUMP JUMPDEST POP DUP1 SLOAD PUSH2 0x250 PUSH2 0x2E5 PUSH1 0x2 PUSH2 0x2DE PUSH1 0x1 DUP7 ADD PUSH2 0x15C0 JUMP JUMPDEST SWAP5 ADD PUSH2 0x15C0 JUMP JUMPDEST PUSH1 0x40 MLOAD SWAP4 DUP5 SWAP4 PUSH1 0xA0 DUP2 SWAP1 SHR SWAP1 PUSH1 0x1 PUSH1 0x1 PUSH1 0xA0 SHL SUB AND DUP6 PUSH2 0x1666 JUMP JUMPDEST CALLVALUE PUSH2 0x27D JUMPI PUSH1 0x20 CALLDATASIZE PUSH1 0x3 NOT ADD SLT PUSH2 0x27D JUMPI PUSH1 0x4 CALLDATALOAD PUSH1 0x1 PUSH1 0x1 PUSH1 0x40 SHL SUB DUP2 GT PUSH2 0x27D JUMPI PUSH2 0x330 SWAP1 CALLDATASIZE SWAP1 PUSH1 0x4 ADD PUSH2 0x14B8 JUMP JUMPDEST PUSH1 0x40 MLOAD DUP2 DUP4 DUP3 CALLDATACOPY PUSH1 0x1 DUP2 DUP4 ADD SWAP1 DUP2 MSTORE DUP2 SWAP1 SUB PUSH1 0x20 ADD SWAP1 KECCAK256 SLOAD PUSH1 0x1 PUSH1 0x1 PUSH1 0xA0 SHL SUB AND ISZERO PUSH2 0x36D JUMPI PUSH2 0x362 SWAP1 PUSH1 0x20 SWAP3 PUSH2 0x1A5F JUMP JUMPDEST PUSH1 0xFF PUSH1 0x40 MLOAD SWAP2 AND DUP2 MSTORE RETURN JUMPDEST PUSH2 0x279 PUSH1 0x40 MLOAD SWAP3 DUP4 SWAP3 PUSH4 0x4F046537 PUSH1 0xE1 SHL DUP5 MSTORE PUSH1 0x20 PUSH1 0x4 DUP6 ADD MSTORE PUSH1 0x24 DUP5 ADD SWAP2 PUSH2 0x19BB JUMP JUMPDEST CALLVALUE PUSH2 0x27D JUMPI PUSH1 0x40 CALLDATASIZE PUSH1 0x3 NOT ADD SLT PUSH2 0x27D JUMPI PUSH1 0x4 CALLDATALOAD PUSH1 0x1 PUSH1 0x1 PUSH1 0x40 SHL SUB DUP2 GT PUSH2 0x27D JUMPI PUSH2 0x3C1 SWAP1 CALLDATASIZE SWAP1 PUSH1 0x4 ADD PUSH2 0x16ED JUMP JUMPDEST PUSH1 0x24 CALLDATALOAD PUSH1 0x1 PUSH1 0x1 PUSH1 0xA0 SHL SUB DUP2 AND SWAP2 SWAP1 DUP3 SWAP1 SUB PUSH2 0x27D JUMPI PUSH1 0x20 PUSH2 0x3F0 SWAP2 DUP2 PUSH1 0x40 MLOAD SWAP4 DUP3 DUP6 DUP1 SWAP5 MLOAD SWAP4 DUP5 SWAP3 ADD PUSH2 0x141E JUMP JUMPDEST DUP2 ADD PUSH1 0x4 DUP2 MSTORE SUB ADD SWAP1 KECCAK256 SWAP1 PUSH1 0x0 MSTORE PUSH1 0x20 MSTORE PUSH1 0x20 PUSH1 0xFF PUSH1 0x40 PUSH1 0x0 KECCAK256 SLOAD AND PUSH1 0x40 MLOAD SWAP1 ISZERO ISZERO DUP2 MSTORE RETURN JUMPDEST CALLVALUE PUSH2 0x27D JUMPI PUSH1 0x20 PUSH2 0x429 PUSH2 0x295 CALLDATASIZE PUSH2 0x1708 JUMP JUMPDEST DUP2 ADD PUSH1 0x3 DUP2 MSTORE SUB ADD SWAP1 KECCAK256 SWAP1 DUP2 SLOAD DUP2 LT ISZERO PUSH2 0x27D JUMPI PUSH2 0x2C7 SWAP2 PUSH2 0x1739 JUMP JUMPDEST CALLVALUE PUSH2 0x27D JUMPI PUSH1 0x20 CALLDATASIZE PUSH1 0x3 NOT ADD SLT PUSH2 0x27D JUMPI PUSH1 0x4 CALLDATALOAD PUSH1 0x1 PUSH1 0x1 PUSH1 0x40 SHL SUB DUP2 GT PUSH2 0x27D JUMPI PUSH2 0x48F PUSH1 0x20 PUSH2 0x47C DUP2 SWAP4 CALLDATASIZE SWAP1 PUSH1 0x4 ADD PUSH2 0x16ED JUMP JUMPDEST DUP2 PUSH1 0x40 MLOAD SWAP4 DUP3 DUP6 DUP1 SWAP5 MLOAD SWAP4 DUP5 SWAP3 ADD PUSH2 0x141E JUMP JUMPDEST DUP2 ADD PUSH1 0x5 DUP2 MSTORE SUB ADD SWAP1 KECCAK256 SLOAD PUSH1 0x40 MLOAD SWAP1 DUP2 MSTORE RETURN JUMPDEST CALLVALUE PUSH2 0x27D JUMPI PUSH1 0x20 CALLDATASIZE PUSH1 0x3 NOT ADD SLT PUSH2 0x27D JUMPI PUSH1 0x4 CALLDATALOAD PUSH1 0x1 PUSH1 0x1 PUSH1 0x40 SHL SUB DUP2 GT PUSH2 0x27D JUMPI PUSH1 0x3 PUSH1 0x20 PUSH2 0x4D7 DUP2 SWAP4 CALLDATASIZE SWAP1 PUSH1 0x4 ADD PUSH2 0x14B8 JUMP JUMPDEST SWAP2 SWAP1 DUP3 PUSH1 0x40 MLOAD SWAP4 DUP5 SWAP3 DUP4 CALLDATACOPY DUP2 ADD PUSH1 0x5 DUP2 MSTORE SUB ADD SWAP1 KECCAK256 SLOAD LT ISZERO PUSH1 0x40 MLOAD SWAP1 DUP2 MSTORE RETURN JUMPDEST CALLVALUE PUSH2 0x27D JUMPI PUSH1 0x60 CALLDATASIZE PUSH1 0x3 NOT ADD SLT PUSH2 0x27D JUMPI PUSH1 0x1 PUSH1 0x1 PUSH1 0x40 SHL SUB PUSH1 0x4 CALLDATALOAD DUP2 DUP2 GT PUSH2 0x27D JUMPI PUSH2 0x528 SWAP1 CALLDATASIZE SWAP1 PUSH1 0x4 ADD PUSH2 0x14B8 JUMP JUMPDEST PUSH1 0x24 SWAP3 SWAP2 SWAP3 CALLDATALOAD DUP3 DUP2 GT PUSH2 0x27D JUMPI PUSH2 0x543 SWAP1 CALLDATASIZE SWAP1 PUSH1 0x4 ADD PUSH2 0x14B8 JUMP JUMPDEST SWAP4 SWAP1 SWAP3 CALLER PUSH1 0x0 MSTORE PUSH1 0x0 PUSH1 0x20 MSTORE PUSH1 0x1 DUP1 PUSH1 0xA0 SHL SUB SWAP1 CALLER DUP3 PUSH1 0x40 PUSH1 0x0 KECCAK256 SLOAD AND SUB PUSH2 0x99E JUMPI DUP4 ISZERO PUSH2 0x96E JUMPI DUP6 ISZERO PUSH2 0x93D JUMPI TIMESTAMP PUSH1 0x44 CALLDATALOAD GT ISZERO PUSH2 0x92B JUMPI DUP2 PUSH1 0x40 MLOAD DUP6 DUP6 DUP3 CALLDATACOPY PUSH1 0x20 DUP2 DUP8 DUP2 ADD PUSH1 0x1 DUP2 MSTORE SUB ADD SWAP1 KECCAK256 SLOAD AND PUSH2 0x908 JUMPI PUSH1 0x40 MLOAD PUSH2 0x5A3 DUP2 PUSH2 0x1584 JUMP JUMPDEST CALLER DUP2 MSTORE PUSH1 0x20 DUP2 ADD PUSH1 0x0 DUP2 MSTORE PUSH1 0x40 DUP3 ADD PUSH11 0xFFFFFFFFFFFFFFFFFFFFFF TIMESTAMP AND DUP2 MSTORE PUSH1 0x60 DUP4 ADD SWAP1 PUSH1 0x44 CALLDATALOAD DUP3 MSTORE PUSH2 0x5D7 CALLDATASIZE DUP10 DUP10 PUSH2 0x16A7 JUMP JUMPDEST SWAP3 PUSH1 0x80 DUP6 ADD SWAP4 DUP5 MSTORE PUSH2 0x5EA CALLDATASIZE DUP13 DUP13 PUSH2 0x16A7 JUMP JUMPDEST PUSH1 0xA0 DUP7 ADD MSTORE PUSH1 0x40 MLOAD DUP10 DUP10 DUP3 CALLDATACOPY PUSH1 0x20 DUP2 DUP12 DUP2 ADD PUSH1 0x1 DUP2 MSTORE SUB ADD SWAP1 KECCAK256 SWAP7 DUP6 MLOAD AND SWAP1 PUSH1 0xFF PUSH1 0xA0 SHL SWAP1 MLOAD ISZERO ISZERO PUSH1 0xA0 SHL AND SWAP2 PUSH11 0xFFFFFFFFFFFFFFFFFFFFFF PUSH1 0xA8 SHL SWAP1 MLOAD PUSH1 0xA8 SHL AND SWAP2 OR OR DUP6 SSTORE MLOAD PUSH1 0x1 DUP6 ADD SSTORE MLOAD DUP1 MLOAD SWAP1 DUP4 DUP3 GT PUSH2 0x82D JUMPI PUSH2 0x64F PUSH1 0x2 DUP7 ADD SLOAD PUSH2 0x152F JUMP JUMPDEST PUSH1 0x1F DUP2 GT PUSH2 0x8C1 JUMPI JUMPDEST POP PUSH1 0x20 SWAP1 PUSH1 0x1F DUP4 GT PUSH1 0x1 EQ PUSH2 0x84E JUMPI PUSH1 0xA0 SWAP4 SWAP3 SWAP2 PUSH1 0x0 SWAP2 DUP4 PUSH2 0x843 JUMPI JUMPDEST POP POP DUP2 PUSH1 0x1 SHL SWAP2 PUSH1 0x0 NOT SWAP1 PUSH1 0x3 SHL SHR NOT AND OR PUSH1 0x2 DUP6 ADD SSTORE JUMPDEST ADD MLOAD DUP1 MLOAD SWAP2 DUP3 GT PUSH2 0x82D JUMPI PUSH2 0x6A5 PUSH1 0x3 DUP5 ADD SLOAD PUSH2 0x152F JUMP JUMPDEST PUSH1 0x1F DUP2 GT PUSH2 0x7E2 JUMPI JUMPDEST POP PUSH1 0x20 SWAP1 PUSH1 0x1F DUP4 GT PUSH1 0x1 EQ PUSH2 0x74E JUMPI DUP3 PUSH2 0x72C SWAP6 SWAP4 PUSH32 0xD38066324D950E844CE76A93C064109A19F4C25B2D75F699B579D856DCCD15B2 SWAP8 SWAP6 SWAP4 PUSH1 0x3 SWAP4 PUSH1 0x0 SWAP3 PUSH2 0x743 JUMPI JUMPDEST POP POP DUP2 PUSH1 0x1 SHL SWAP2 PUSH1 0x0 NOT SWAP1 DUP5 SHL SHR NOT AND OR SWAP2 ADD SSTORE JUMPDEST DUP2 PUSH1 0x40 MLOAD SWAP3 DUP4 SWAP3 DUP4 CALLDATACOPY DUP2 ADD PUSH1 0x0 DUP2 MSTORE SUB SWAP1 KECCAK256 SWAP3 PUSH1 0x40 MLOAD SWAP5 PUSH1 0x60 DUP7 MSTORE PUSH1 0x60 DUP7 ADD SWAP2 PUSH2 0x19BB JUMP JUMPDEST SWAP3 PUSH1 0x44 CALLDATALOAD PUSH1 0x20 DUP3 ADD MSTORE TIMESTAMP PUSH1 0x40 DUP3 ADD MSTORE DUP1 CALLER SWAP5 SUB SWAP1 LOG3 STOP JUMPDEST ADD MLOAD SWAP1 POP DUP11 DUP1 PUSH2 0x6F2 JUMP JUMPDEST SWAP1 PUSH1 0x1F NOT DUP4 AND SWAP2 PUSH1 0x3 DUP6 ADD PUSH1 0x0 MSTORE PUSH1 0x20 PUSH1 0x0 KECCAK256 SWAP3 PUSH1 0x0 JUMPDEST DUP2 DUP2 LT PUSH2 0x7CA JUMPI POP SWAP4 PUSH32 0xD38066324D950E844CE76A93C064109A19F4C25B2D75F699B579D856DCCD15B2 SWAP8 SWAP6 SWAP4 PUSH1 0x3 SWAP4 PUSH1 0x1 SWAP4 DUP4 PUSH2 0x72C SWAP11 SWAP9 LT PUSH2 0x7B2 JUMPI JUMPDEST POP POP POP DUP2 SHL ADD SWAP2 ADD SSTORE PUSH2 0x707 JUMP JUMPDEST ADD MLOAD PUSH1 0x0 NOT DUP4 DUP7 SHL PUSH1 0xF8 AND SHR NOT AND SWAP1 SSTORE DUP11 DUP1 DUP1 PUSH2 0x7A4 JUMP JUMPDEST SWAP3 SWAP4 PUSH1 0x20 PUSH1 0x1 DUP2 SWAP3 DUP8 DUP7 ADD MLOAD DUP2 SSTORE ADD SWAP6 ADD SWAP4 ADD PUSH2 0x765 JUMP JUMPDEST PUSH1 0x3 DUP5 ADD PUSH1 0x0 MSTORE PUSH1 0x20 PUSH1 0x0 KECCAK256 PUSH1 0x1F DUP5 ADD PUSH1 0x5 SHR DUP2 ADD SWAP2 PUSH1 0x20 DUP6 LT PUSH2 0x823 JUMPI JUMPDEST PUSH1 0x1F ADD PUSH1 0x5 SHR ADD SWAP1 JUMPDEST DUP2 DUP2 LT PUSH2 0x817 JUMPI POP PUSH2 0x6AE JUMP JUMPDEST PUSH1 0x0 DUP2 SSTORE PUSH1 0x1 ADD PUSH2 0x80A JUMP JUMPDEST SWAP1 SWAP2 POP DUP2 SWAP1 PUSH2 0x801 JUMP JUMPDEST PUSH4 0x4E487B71 PUSH1 0xE0 SHL PUSH1 0x0 MSTORE PUSH1 0x41 PUSH1 0x4 MSTORE PUSH1 0x24 PUSH1 0x0 REVERT JUMPDEST ADD MLOAD SWAP1 POP DUP11 DUP1 PUSH2 0x675 JUMP JUMPDEST SWAP1 PUSH1 0x2 DUP7 ADD PUSH1 0x0 MSTORE PUSH1 0x20 PUSH1 0x0 KECCAK256 SWAP2 PUSH1 0x0 JUMPDEST PUSH1 0x1F NOT DUP6 AND DUP2 LT PUSH2 0x8A9 JUMPI POP SWAP2 DUP4 SWAP2 PUSH1 0x1 SWAP4 PUSH1 0xA0 SWAP7 SWAP6 PUSH1 0x1F NOT DUP2 AND LT PUSH2 0x890 JUMPI JUMPDEST POP POP POP DUP2 SHL ADD PUSH1 0x2 DUP6 ADD SSTORE PUSH2 0x68D JUMP JUMPDEST ADD MLOAD PUSH1 0x0 NOT PUSH1 0xF8 DUP5 PUSH1 0x3 SHL AND SHR NOT AND SWAP1 SSTORE DUP11 DUP1 DUP1 PUSH2 0x880 JUMP JUMPDEST SWAP2 SWAP3 PUSH1 0x20 PUSH1 0x1 DUP2 SWAP3 DUP7 DUP6 ADD MLOAD DUP2 SSTORE ADD SWAP5 ADD SWAP3 ADD PUSH2 0x85F JUMP JUMPDEST PUSH1 0x2 DUP7 ADD PUSH1 0x0 MSTORE PUSH1 0x20 PUSH1 0x0 KECCAK256 PUSH1 0x1F DUP5 ADD PUSH1 0x5 SHR DUP2 ADD PUSH1 0x20 DUP6 LT PUSH2 0x901 JUMPI JUMPDEST PUSH1 0x1F DUP4 ADD PUSH1 0x5 SHR DUP3 ADD DUP2 LT PUSH2 0x8F5 JUMPI POP POP PUSH2 0x658 JUMP JUMPDEST PUSH1 0x0 DUP2 SSTORE PUSH1 0x1 ADD PUSH2 0x8DF JUMP JUMPDEST POP DUP1 PUSH2 0x8DF JUMP JUMPDEST PUSH1 0x40 MLOAD PUSH4 0x1B047E73 PUSH1 0xE2 SHL DUP2 MSTORE PUSH1 0x20 PUSH1 0x4 DUP3 ADD MSTORE DUP1 PUSH2 0x279 PUSH1 0x24 DUP3 ADD DUP8 DUP8 PUSH2 0x19BB JUMP JUMPDEST PUSH1 0x40 MLOAD PUSH4 0x79955A1 PUSH1 0xE4 SHL DUP2 MSTORE PUSH1 0x4 SWAP1 REVERT JUMPDEST PUSH1 0x40 MLOAD PUSH4 0xA69290E7 PUSH1 0xE0 SHL DUP2 MSTORE PUSH1 0x20 PUSH1 0x4 DUP3 ADD MSTORE PUSH1 0x8 PUSH1 0x24 DUP3 ADD MSTORE PUSH8 0xD2E0CCE690C2E6D PUSH1 0xC3 SHL PUSH1 0x44 DUP3 ADD MSTORE PUSH1 0x64 SWAP1 REVERT JUMPDEST PUSH1 0x40 MLOAD PUSH4 0xA69290E7 PUSH1 0xE0 SHL DUP2 MSTORE PUSH1 0x20 PUSH1 0x4 DUP3 ADD MSTORE PUSH1 0x7 PUSH1 0x24 DUP3 ADD MSTORE PUSH7 0x18985D18DA1259 PUSH1 0xCA SHL PUSH1 0x44 DUP3 ADD MSTORE PUSH1 0x64 SWAP1 REVERT JUMPDEST PUSH1 0x40 MLOAD PUSH4 0x27C648C3 PUSH1 0xE0 SHL DUP2 MSTORE PUSH1 0x4 SWAP1 REVERT JUMPDEST CALLVALUE PUSH2 0x27D JUMPI PUSH1 0x20 CALLDATASIZE PUSH1 0x3 NOT ADD SLT PUSH2 0x27D JUMPI PUSH1 0x4 CALLDATALOAD PUSH1 0x1 PUSH1 0x1 PUSH1 0x40 SHL SUB DUP2 GT PUSH2 0x27D JUMPI PUSH1 0x20 PUSH2 0x47C PUSH2 0x9E5 SWAP3 CALLDATASIZE SWAP1 PUSH1 0x4 ADD PUSH2 0x16ED JUMP JUMPDEST DUP2 ADD PUSH1 0x1 DUP2 MSTORE SUB ADD SWAP1 KECCAK256 DUP1 SLOAD PUSH2 0x250 PUSH1 0x1 DUP4 ADD SLOAD SWAP3 PUSH2 0xA53 PUSH2 0xA15 PUSH1 0x3 PUSH2 0xA0E PUSH1 0x2 DUP6 ADD PUSH2 0x15C0 JUMP JUMPDEST SWAP4 ADD PUSH2 0x15C0 JUMP JUMPDEST SWAP2 PUSH1 0x40 MLOAD SWAP6 DUP7 SWAP6 PUSH1 0x1 DUP1 PUSH1 0xA0 SHL SUB DUP2 AND DUP8 MSTORE PUSH1 0xFF DUP2 PUSH1 0xA0 SHR AND ISZERO ISZERO PUSH1 0x20 DUP9 ADD MSTORE PUSH1 0xA8 SHR PUSH1 0x40 DUP8 ADD MSTORE PUSH1 0x60 DUP7 ADD MSTORE PUSH1 0xC0 PUSH1 0x80 DUP7 ADD MSTORE PUSH1 0xC0 DUP6 ADD SWAP1 PUSH2 0x1441 JUMP JUMPDEST SWAP1 DUP4 DUP3 SUB PUSH1 0xA0 DUP6 ADD MSTORE PUSH2 0x1441 JUMP JUMPDEST CALLVALUE PUSH2 0x27D JUMPI PUSH1 0x0 CALLDATASIZE PUSH1 0x3 NOT ADD SLT PUSH2 0x27D JUMPI PUSH1 0x20 PUSH1 0x40 MLOAD PUSH1 0x3 DUP2 MSTORE RETURN JUMPDEST CALLVALUE PUSH2 0x27D JUMPI PUSH1 0x20 CALLDATASIZE PUSH1 0x3 NOT ADD SLT PUSH2 0x27D JUMPI PUSH1 0x1 PUSH1 0x1 PUSH1 0xA0 SHL SUB DUP1 PUSH2 0xA9F PUSH2 0x1408 JUMP JUMPDEST AND PUSH1 0x0 MSTORE PUSH1 0x0 PUSH1 0x20 MSTORE PUSH1 0x40 PUSH1 0x0 KECCAK256 SWAP1 PUSH2 0x250 DUP3 SLOAD SWAP3 PUSH2 0xACC PUSH1 0x2 PUSH2 0xAC5 PUSH1 0x1 DUP5 ADD PUSH2 0x15C0 JUMP JUMPDEST SWAP3 ADD PUSH2 0x15C0 JUMP JUMPDEST SWAP1 PUSH1 0x40 MLOAD SWAP5 DUP6 SWAP5 DUP2 PUSH1 0xA0 SHR SWAP2 AND DUP6 PUSH2 0x1666 JUMP JUMPDEST CALLVALUE PUSH2 0x27D JUMPI PUSH1 0x20 DUP1 PUSH1 0x3 NOT CALLDATASIZE ADD SLT PUSH2 0x27D JUMPI PUSH1 0x4 CALLDATALOAD PUSH1 0x1 PUSH1 0x1 PUSH1 0x40 SHL SUB DUP2 GT PUSH2 0x27D JUMPI PUSH2 0xB10 SWAP1 CALLDATASIZE SWAP1 PUSH1 0x4 ADD PUSH2 0x14B8 JUMP JUMPDEST PUSH1 0x40 MLOAD SWAP3 SWAP2 DUP2 SWAP1 DUP5 CALLDATACOPY DUP3 ADD SWAP2 DUP2 DUP2 PUSH1 0x3 SWAP5 DUP6 DUP2 MSTORE SUB ADD SWAP1 KECCAK256 DUP1 SLOAD PUSH2 0xB33 DUP2 PUSH2 0x1A48 JUMP JUMPDEST SWAP4 PUSH2 0xB41 PUSH1 0x40 MLOAD SWAP6 DUP7 PUSH2 0x159F JUMP JUMPDEST DUP2 DUP6 MSTORE DUP4 DUP6 ADD DUP1 SWAP4 PUSH1 0x0 MSTORE DUP5 PUSH1 0x0 KECCAK256 PUSH1 0x0 SWAP2 JUMPDEST DUP5 DUP4 LT PUSH2 0xBB7 JUMPI PUSH1 0x40 DUP1 MLOAD DUP9 DUP2 MSTORE DUP10 MLOAD DUP2 DUP11 ADD DUP2 SWAP1 MSTORE PUSH1 0x0 SWAP3 PUSH1 0x5 DUP3 SWAP1 SHL DUP4 ADD DUP2 ADD SWAP2 DUP11 SWAP2 DUP13 SWAP1 DUP6 ADD JUMPDEST DUP3 DUP8 LT PUSH2 0xB8B JUMPI DUP6 DUP6 SUB DUP7 RETURN JUMPDEST SWAP1 SWAP2 SWAP3 SWAP4 DUP3 DUP1 PUSH2 0xBA7 PUSH1 0x1 SWAP4 PUSH1 0x3F NOT DUP11 DUP3 SUB ADD DUP7 MSTORE DUP9 MLOAD PUSH2 0x1466 JUMP JUMPDEST SWAP7 ADD SWAP3 ADD SWAP7 ADD SWAP6 SWAP3 SWAP2 SWAP1 SWAP3 PUSH2 0xB7E JUMP JUMPDEST DUP4 DUP8 PUSH1 0x1 SWAP3 PUSH2 0xBC8 DUP6 SWAP12 SWAP11 SWAP12 PUSH2 0x1A01 JUMP JUMPDEST DUP2 MSTORE ADD SWAP3 ADD SWAP3 ADD SWAP2 SWAP1 SWAP7 SWAP6 SWAP7 PUSH2 0xB54 JUMP JUMPDEST CALLVALUE PUSH2 0x27D JUMPI PUSH1 0x20 DUP1 PUSH1 0x3 NOT CALLDATASIZE ADD SLT PUSH2 0x27D JUMPI PUSH1 0x4 CALLDATALOAD PUSH1 0x1 PUSH1 0x1 PUSH1 0x40 SHL SUB DUP2 GT PUSH2 0x27D JUMPI PUSH2 0xC0A SWAP1 CALLDATASIZE SWAP1 PUSH1 0x4 ADD PUSH2 0x14B8 JUMP JUMPDEST SWAP1 PUSH1 0x40 MLOAD DUP3 DUP3 DUP3 CALLDATACOPY PUSH1 0x1 DUP2 DUP5 ADD SWAP1 DUP2 MSTORE DUP2 SWAP1 SUB DUP5 ADD SWAP1 KECCAK256 SLOAD PUSH1 0x1 PUSH1 0x1 PUSH1 0xA0 SHL SUB SWAP1 DUP2 AND ISZERO PUSH2 0xCF8 JUMPI PUSH1 0x40 MLOAD DUP4 DUP4 DUP3 CALLDATACOPY DUP5 DUP2 DUP6 DUP2 ADD PUSH1 0x1 DUP2 MSTORE SUB ADD SWAP1 KECCAK256 SLOAD AND CALLER SUB PUSH2 0xCE6 JUMPI PUSH1 0xFF PUSH1 0x40 MLOAD DUP4 DUP4 DUP3 CALLDATACOPY DUP5 DUP2 DUP6 DUP2 ADD PUSH1 0x1 DUP2 MSTORE SUB ADD SWAP1 KECCAK256 SLOAD PUSH1 0xA0 SHR AND PUSH2 0xCD4 JUMPI PUSH1 0x40 MLOAD DUP3 DUP3 DUP3 CALLDATACOPY PUSH1 0x1 DUP4 DUP3 ADD SWAP1 DUP2 MSTORE DUP2 SWAP1 SUB DUP5 ADD SWAP1 KECCAK256 DUP1 SLOAD PUSH1 0xFF PUSH1 0xA0 SHL NOT AND PUSH1 0x1 PUSH1 0xA0 SHL OR SWAP1 SSTORE PUSH1 0x40 MLOAD SWAP2 DUP3 SWAP2 DUP2 SWAP1 DUP4 CALLDATACOPY DUP2 ADD PUSH1 0x0 DUP2 MSTORE SUB SWAP1 KECCAK256 PUSH32 0x3068FE52A60A8DA503A950B52784E0F6FDBCA2245C2DC817CDE96D74DBC1DD8 PUSH1 0x40 MLOAD SWAP3 TIMESTAMP DUP5 MSTORE CALLER SWAP4 LOG3 STOP JUMPDEST PUSH1 0x40 MLOAD PUSH4 0xCFFC9F85 PUSH1 0xE0 SHL DUP2 MSTORE PUSH1 0x4 SWAP1 REVERT JUMPDEST PUSH1 0x40 MLOAD PUSH4 0x1CABF071 PUSH1 0xE1 SHL DUP2 MSTORE PUSH1 0x4 SWAP1 REVERT JUMPDEST POP PUSH1 0x40 MLOAD PUSH4 0x4F046537 PUSH1 0xE1 SHL DUP2 MSTORE PUSH1 0x4 DUP2 ADD DUP5 SWAP1 MSTORE SWAP2 DUP3 SWAP2 PUSH2 0x279 SWAP2 PUSH1 0x24 DUP5 ADD SWAP2 PUSH2 0x19BB JUMP JUMPDEST CALLVALUE PUSH2 0x27D JUMPI PUSH2 0xD2C CALLDATASIZE PUSH2 0x14E5 JUMP JUMPDEST SWAP2 SWAP3 SWAP1 DUP4 ISZERO PUSH2 0xE4D JUMPI DUP3 ISZERO PUSH2 0xE17 JUMPI CALLER PUSH1 0x0 DUP2 DUP2 MSTORE PUSH1 0x20 DUP2 SWAP1 MSTORE PUSH1 0x40 SWAP1 KECCAK256 SLOAD PUSH1 0x1 PUSH1 0x1 PUSH1 0xA0 SHL SUB AND EQ PUSH2 0xE05 JUMPI PUSH32 0x4A9379AADAD74A32F0C7CBE50DCC033680F93FD3DD8E57A1D6C4C2D2F13C010D SWAP3 PUSH2 0xDE8 PUSH2 0xDF6 SWAP4 PUSH2 0xDD6 PUSH1 0x40 MLOAD PUSH2 0xD91 DUP2 PUSH2 0x1569 JUMP JUMPDEST CALLER DUP2 MSTORE PUSH1 0x1 PUSH1 0x1 PUSH1 0x60 SHL SUB TIMESTAMP AND PUSH1 0x20 DUP3 ADD MSTORE PUSH2 0xDAE CALLDATASIZE DUP11 DUP6 PUSH2 0x16A7 JUMP JUMPDEST PUSH1 0x40 DUP3 ADD MSTORE PUSH2 0xDBE CALLDATASIZE DUP7 DUP9 PUSH2 0x16A7 JUMP JUMPDEST PUSH1 0x60 DUP3 ADD MSTORE CALLER PUSH1 0x0 MSTORE PUSH1 0x0 PUSH1 0x20 MSTORE PUSH1 0x40 PUSH1 0x0 KECCAK256 PUSH2 0x176B JUMP JUMPDEST PUSH1 0x40 MLOAD SWAP7 PUSH1 0x60 DUP9 MSTORE PUSH1 0x60 DUP9 ADD SWAP2 PUSH2 0x19BB JUMP JUMPDEST SWAP2 DUP6 DUP4 SUB PUSH1 0x20 DUP8 ADD MSTORE PUSH2 0x19BB JUMP JUMPDEST SWAP2 TIMESTAMP PUSH1 0x40 DUP3 ADD MSTORE DUP1 CALLER SWAP4 SUB SWAP1 LOG2 STOP JUMPDEST PUSH1 0x40 MLOAD PUSH4 0xEA075BF PUSH1 0xE2 SHL DUP2 MSTORE PUSH1 0x4 SWAP1 REVERT JUMPDEST PUSH1 0x40 MLOAD PUSH4 0xA69290E7 PUSH1 0xE0 SHL DUP2 MSTORE PUSH1 0x20 PUSH1 0x4 DUP3 ADD MSTORE PUSH1 0xD PUSH1 0x24 DUP3 ADD MSTORE PUSH13 0x3634B1B2B739B2A73AB6B132B9 PUSH1 0x99 SHL PUSH1 0x44 DUP3 ADD MSTORE PUSH1 0x64 SWAP1 REVERT JUMPDEST PUSH1 0x64 PUSH1 0x40 MLOAD PUSH4 0xA69290E7 PUSH1 0xE0 SHL DUP2 MSTORE PUSH1 0x20 PUSH1 0x4 DUP3 ADD MSTORE PUSH1 0x4 PUSH1 0x24 DUP3 ADD MSTORE PUSH4 0x6E616D65 PUSH1 0xE0 SHL PUSH1 0x44 DUP3 ADD MSTORE REVERT JUMPDEST CALLVALUE PUSH2 0x27D JUMPI PUSH1 0x60 CALLDATASIZE PUSH1 0x3 NOT ADD SLT PUSH2 0x27D JUMPI PUSH1 0x1 PUSH1 0x1 PUSH1 0x40 SHL SUB PUSH1 0x4 CALLDATALOAD DUP2 DUP2 GT PUSH2 0x27D JUMPI PUSH2 0xEAA SWAP1 CALLDATASIZE SWAP1 PUSH1 0x4 ADD PUSH2 0x14B8 JUMP JUMPDEST PUSH1 0x24 SWAP3 SWAP2 SWAP3 CALLDATALOAD DUP3 DUP2 GT PUSH2 0x27D JUMPI PUSH2 0xEC5 SWAP1 CALLDATASIZE SWAP1 PUSH1 0x4 ADD PUSH2 0x14B8 JUMP JUMPDEST SWAP1 SWAP3 PUSH1 0x44 CALLDATALOAD SWAP1 DUP2 GT PUSH2 0x27D JUMPI PUSH2 0xEDF SWAP1 CALLDATASIZE SWAP1 PUSH1 0x4 ADD PUSH2 0x14B8 JUMP JUMPDEST SWAP3 PUSH1 0x40 MLOAD SWAP6 DUP2 DUP2 DUP9 CALLDATACOPY PUSH1 0x1 DUP8 DUP4 ADD SWAP1 DUP2 MSTORE DUP8 SWAP1 SUB PUSH1 0x20 SWAP1 DUP2 ADD SWAP1 SWAP8 KECCAK256 SLOAD PUSH1 0x1 PUSH1 0x1 PUSH1 0xA0 SHL SUB AND ISZERO PUSH2 0x1012 JUMPI DUP4 ISZERO PUSH2 0xFE1 JUMPI PUSH2 0xF5D PUSH1 0x40 MLOAD DUP4 DUP4 DUP3 CALLDATACOPY DUP9 DUP2 DUP6 DUP2 ADD PUSH1 0x3 DUP2 MSTORE SUB ADD SWAP1 KECCAK256 SWAP4 PUSH1 0x40 MLOAD SWAP7 PUSH2 0xF35 DUP9 PUSH2 0x1569 JUMP JUMPDEST CALLER DUP9 MSTORE PUSH1 0x1 PUSH1 0x1 PUSH1 0x60 SHL SUB TIMESTAMP AND DUP11 DUP10 ADD MSTORE PUSH2 0xF51 CALLDATASIZE DUP9 DUP12 PUSH2 0x16A7 JUMP JUMPDEST PUSH1 0x40 DUP10 ADD MSTORE CALLDATASIZE SWAP2 PUSH2 0x16A7 JUMP JUMPDEST PUSH1 0x60 DUP7 ADD MSTORE DUP3 SLOAD PUSH1 0x1 PUSH1 0x40 SHL DUP2 LT ISZERO PUSH2 0x82D JUMPI PUSH32 0x2F9762F2C7BA2B8DB7A61486CDC8F2D18814743B9B56D3A3FF84064D13648DD SWAP6 PUSH2 0xFA8 DUP3 PUSH2 0xFD3 SWAP7 PUSH1 0x1 PUSH2 0xFAE SWAP6 ADD DUP2 SSTORE PUSH2 0x1739 JUMP JUMPDEST SWAP1 PUSH2 0x19DC JUMP JUMPDEST DUP2 PUSH1 0x40 MLOAD SWAP3 DUP4 SWAP3 DUP4 CALLDATACOPY DUP2 ADD PUSH1 0x0 DUP2 MSTORE SUB SWAP1 KECCAK256 SWAP4 PUSH1 0x40 MLOAD SWAP3 PUSH1 0x40 DUP5 MSTORE PUSH1 0x40 DUP5 ADD SWAP2 PUSH2 0x19BB JUMP JUMPDEST SWAP4 TIMESTAMP SWAP1 DUP3 ADD MSTORE DUP1 CALLER SWAP5 SUB SWAP1 LOG3 STOP JUMPDEST PUSH1 0x40 MLOAD PUSH4 0xA69290E7 PUSH1 0xE0 SHL DUP2 MSTORE PUSH1 0x4 DUP2 ADD DUP9 SWAP1 MSTORE PUSH1 0x8 PUSH1 0x24 DUP3 ADD MSTORE PUSH8 0x3637B1B0BA34B7B7 PUSH1 0xC1 SHL PUSH1 0x44 DUP3 ADD MSTORE PUSH1 0x64 SWAP1 REVERT JUMPDEST PUSH1 0x40 MLOAD PUSH4 0x4F046537 PUSH1 0xE1 SHL DUP2 MSTORE PUSH1 0x4 DUP2 ADD DUP9 SWAP1 MSTORE SWAP2 DUP3 SWAP2 PUSH2 0x279 SWAP2 PUSH1 0x24 DUP5 ADD SWAP2 PUSH2 0x19BB JUMP JUMPDEST CALLVALUE PUSH2 0x27D JUMPI PUSH2 0x1045 CALLDATASIZE PUSH2 0x14E5 JUMP JUMPDEST SWAP3 SWAP1 PUSH1 0x40 MLOAD SWAP4 DUP4 DUP4 DUP7 CALLDATACOPY PUSH1 0x1 DUP6 DUP6 ADD SWAP1 DUP2 MSTORE DUP6 SWAP1 SUB PUSH1 0x20 SWAP1 DUP2 ADD SWAP1 SWAP6 KECCAK256 SLOAD PUSH1 0x1 PUSH1 0x1 PUSH1 0xA0 SHL SUB AND ISZERO PUSH2 0x123C JUMPI DUP1 ISZERO PUSH2 0x120D JUMPI PUSH1 0x40 MLOAD DUP5 DUP5 DUP3 CALLDATACOPY DUP6 DUP2 DUP7 DUP2 ADD PUSH1 0x4 DUP2 MSTORE SUB ADD SWAP1 KECCAK256 CALLER PUSH1 0x0 MSTORE DUP6 MSTORE PUSH1 0xFF PUSH1 0x40 PUSH1 0x0 KECCAK256 SLOAD AND PUSH2 0x11FB JUMPI PUSH1 0x40 MLOAD DUP5 DUP5 DUP3 CALLDATACOPY DUP6 DUP2 DUP7 DUP2 ADD PUSH1 0x4 DUP2 MSTORE SUB ADD SWAP1 KECCAK256 CALLER PUSH1 0x0 MSTORE DUP6 MSTORE PUSH1 0x40 PUSH1 0x0 KECCAK256 PUSH1 0x1 PUSH1 0xFF NOT DUP3 SLOAD AND OR SWAP1 SSTORE PUSH1 0x40 MLOAD DUP5 DUP5 DUP3 CALLDATACOPY DUP6 DUP2 DUP7 DUP2 ADD PUSH1 0x5 DUP2 MSTORE SUB ADD SWAP1 KECCAK256 SWAP2 PUSH1 0x1 DUP4 SLOAD ADD DUP1 SWAP4 SSTORE PUSH1 0x40 MLOAD DUP6 DUP6 DUP3 CALLDATACOPY DUP7 DUP2 DUP8 DUP2 ADD PUSH1 0x2 DUP2 MSTORE SUB ADD SWAP1 KECCAK256 PUSH1 0x40 MLOAD PUSH2 0x1105 DUP2 PUSH2 0x1569 JUMP JUMPDEST CALLER DUP2 MSTORE PUSH1 0x1 PUSH1 0x1 PUSH1 0x60 SHL SUB TIMESTAMP AND DUP9 DUP3 ADD MSTORE PUSH2 0x1121 CALLDATASIZE DUP9 DUP9 PUSH2 0x16A7 JUMP JUMPDEST PUSH1 0x40 DUP3 ADD MSTORE PUSH2 0x1131 CALLDATASIZE DUP6 DUP6 PUSH2 0x16A7 JUMP JUMPDEST PUSH1 0x60 DUP3 ADD MSTORE DUP2 SLOAD SWAP2 PUSH1 0x1 PUSH1 0x40 SHL DUP4 LT ISZERO PUSH2 0x82D JUMPI DUP3 PUSH2 0xFA8 SWAP2 PUSH1 0x1 PUSH2 0x1158 SWAP6 ADD DUP2 SSTORE PUSH2 0x1739 JUMP JUMPDEST PUSH32 0xFD8432736BD96D6A42FA381B51B5E244A4C3A1498BDD2E09E1B3DFA4FC448DD8 PUSH2 0x11A1 PUSH1 0x40 MLOAD DUP8 DUP8 DUP3 CALLDATACOPY DUP1 DUP9 DUP2 ADD PUSH1 0x0 DUP2 MSTORE SUB SWAP1 KECCAK256 SWAP3 PUSH1 0x40 MLOAD SWAP5 PUSH1 0x40 DUP7 MSTORE PUSH1 0x40 DUP7 ADD SWAP2 PUSH2 0x19BB JUMP JUMPDEST SWAP3 TIMESTAMP DUP9 DUP3 ADD MSTORE DUP1 CALLER SWAP5 SUB SWAP1 LOG3 PUSH1 0x3 DUP2 EQ PUSH2 0x11B7 JUMPI STOP JUMPDEST DUP3 PUSH1 0x40 SWAP3 PUSH32 0x8C8802901215474DBCBE3D9F475D04DBB3BBDEFA007E57AACED8CAF8B74C5749 SWAP5 DUP5 MLOAD SWAP3 DUP4 SWAP3 DUP4 CALLDATACOPY DUP2 ADD PUSH1 0x0 DUP2 MSTORE SUB SWAP1 KECCAK256 SWAP4 DUP3 MLOAD SWAP2 DUP3 MSTORE TIMESTAMP SWAP1 DUP3 ADD MSTORE LOG2 STOP JUMPDEST PUSH1 0x40 MLOAD PUSH4 0x770C15E3 PUSH1 0xE0 SHL DUP2 MSTORE PUSH1 0x4 SWAP1 REVERT JUMPDEST PUSH1 0x40 MLOAD PUSH4 0xA69290E7 PUSH1 0xE0 SHL DUP2 MSTORE PUSH1 0x4 DUP2 ADD DUP7 SWAP1 MSTORE PUSH1 0x6 PUSH1 0x24 DUP3 ADD MSTORE PUSH6 0x3932B0B9B7B7 PUSH1 0xD1 SHL PUSH1 0x44 DUP3 ADD MSTORE PUSH1 0x64 SWAP1 REVERT JUMPDEST PUSH1 0x40 MLOAD PUSH4 0x4F046537 PUSH1 0xE1 SHL DUP2 MSTORE PUSH1 0x4 DUP2 ADD DUP7 SWAP1 MSTORE DUP1 PUSH2 0x279 PUSH1 0x24 DUP3 ADD DUP8 DUP8 PUSH2 0x19BB JUMP JUMPDEST CALLVALUE PUSH2 0x27D JUMPI PUSH1 0x20 DUP1 PUSH1 0x3 NOT CALLDATASIZE ADD SLT PUSH2 0x27D JUMPI PUSH1 0x4 CALLDATALOAD PUSH1 0x1 PUSH1 0x1 PUSH1 0x40 SHL SUB DUP2 GT PUSH2 0x27D JUMPI PUSH2 0x1291 DUP3 SWAP2 CALLDATASIZE SWAP1 PUSH1 0x4 ADD PUSH2 0x14B8 JUMP JUMPDEST SWAP2 SWAP1 DUP3 PUSH1 0x40 MLOAD SWAP4 DUP5 SWAP3 DUP4 CALLDATACOPY DUP2 ADD PUSH1 0x2 DUP2 MSTORE SUB ADD SWAP1 KECCAK256 SWAP1 DUP2 SLOAD SWAP2 PUSH2 0x12B3 DUP4 PUSH2 0x1A48 JUMP JUMPDEST SWAP3 PUSH2 0x12C1 PUSH1 0x40 MLOAD SWAP5 DUP6 PUSH2 0x159F JUMP JUMPDEST DUP1 DUP5 MSTORE DUP3 DUP5 ADD DUP1 SWAP3 PUSH1 0x0 MSTORE DUP4 PUSH1 0x0 KECCAK256 PUSH1 0x0 SWAP2 JUMPDEST DUP4 DUP4 LT PUSH2 0x133B JUMPI POP POP POP POP PUSH1 0x40 MLOAD SWAP2 DUP1 DUP4 ADD SWAP4 DUP2 DUP5 MSTORE MLOAD DUP1 SWAP5 MSTORE PUSH1 0x40 DUP4 ADD SWAP4 PUSH1 0x40 DUP2 PUSH1 0x5 SHL DUP6 ADD ADD SWAP3 SWAP2 PUSH1 0x0 SWAP6 JUMPDEST DUP3 DUP8 LT PUSH2 0x130F JUMPI DUP6 DUP6 SUB DUP7 RETURN JUMPDEST SWAP1 SWAP2 SWAP3 SWAP4 DUP3 DUP1 PUSH2 0x132B PUSH1 0x1 SWAP4 PUSH1 0x3F NOT DUP11 DUP3 SUB ADD DUP7 MSTORE DUP9 MLOAD PUSH2 0x1466 JUMP JUMPDEST SWAP7 ADD SWAP3 ADD SWAP7 ADD SWAP6 SWAP3 SWAP2 SWAP1 SWAP3 PUSH2 0x1302 JUMP JUMPDEST PUSH1 0x3 DUP7 PUSH1 0x1 SWAP3 PUSH2 0x134D DUP6 SWAP11 SWAP10 SWAP11 PUSH2 0x1A01 JUMP JUMPDEST DUP2 MSTORE ADD SWAP3 ADD SWAP3 ADD SWAP2 SWAP1 SWAP6 SWAP5 SWAP6 PUSH2 0x12D4 JUMP JUMPDEST CALLVALUE PUSH2 0x27D JUMPI PUSH1 0x20 CALLDATASIZE PUSH1 0x3 NOT ADD SLT PUSH2 0x27D JUMPI PUSH2 0x1377 PUSH2 0x1408 JUMP JUMPDEST PUSH1 0x60 DUP1 PUSH1 0x40 MLOAD PUSH2 0x1386 DUP2 PUSH2 0x1569 JUMP JUMPDEST PUSH1 0x0 DUP2 MSTORE PUSH1 0x0 PUSH1 0x20 DUP3 ADD MSTORE DUP2 PUSH1 0x40 DUP3 ADD MSTORE ADD MSTORE PUSH1 0x1 DUP1 PUSH1 0xA0 SHL SUB AND PUSH1 0x0 MSTORE PUSH1 0x0 PUSH1 0x20 MSTORE PUSH2 0x250 PUSH2 0x13B9 PUSH1 0x40 PUSH1 0x0 KECCAK256 PUSH2 0x1A01 JUMP JUMPDEST PUSH1 0x40 MLOAD SWAP2 DUP3 SWAP2 PUSH1 0x20 DUP4 MSTORE PUSH1 0x20 DUP4 ADD SWAP1 PUSH2 0x1466 JUMP JUMPDEST CALLVALUE PUSH2 0x27D JUMPI PUSH1 0x20 CALLDATASIZE PUSH1 0x3 NOT ADD SLT PUSH2 0x27D JUMPI PUSH1 0x20 SWAP1 PUSH1 0x1 PUSH1 0x1 PUSH1 0xA0 SHL SUB DUP1 PUSH2 0x13F2 PUSH2 0x1408 JUMP JUMPDEST AND SWAP1 DUP2 PUSH1 0x0 MSTORE PUSH1 0x0 DUP5 MSTORE PUSH1 0x40 PUSH1 0x0 KECCAK256 SLOAD AND EQ DUP2 MSTORE RETURN JUMPDEST PUSH1 0x4 CALLDATALOAD SWAP1 PUSH1 0x1 PUSH1 0x1 PUSH1 0xA0 SHL SUB DUP3 AND DUP3 SUB PUSH2 0x27D JUMPI JUMP JUMPDEST PUSH1 0x0 JUMPDEST DUP4 DUP2 LT PUSH2 0x1431 JUMPI POP POP PUSH1 0x0 SWAP2 ADD MSTORE JUMP JUMPDEST DUP2 DUP2 ADD MLOAD DUP4 DUP3 ADD MSTORE PUSH1 0x20 ADD PUSH2 0x1421 JUMP JUMPDEST SWAP1 PUSH1 0x20 SWAP2 PUSH2 0x145A DUP2 MLOAD DUP1 SWAP3 DUP2 DUP6 MSTORE DUP6 DUP1 DUP7 ADD SWAP2 ADD PUSH2 0x141E JUMP JUMPDEST PUSH1 0x1F ADD PUSH1 0x1F NOT AND ADD ADD SWAP1 JUMP JUMPDEST PUSH2 0x14B5 SWAP2 PUSH1 0x1 DUP1 PUSH1 0xA0 SHL SUB DUP3 MLOAD AND DUP2 MSTORE PUSH1 0x1 PUSH1 0x1 PUSH1 0x60 SHL SUB PUSH1 0x20 DUP4 ADD MLOAD AND PUSH1 0x20 DUP3 ADD MSTORE PUSH1 0x60 PUSH2 0x14A4 PUSH1 0x40 DUP5 ADD MLOAD PUSH1 0x80 PUSH1 0x40 DUP6 ADD MSTORE PUSH1 0x80 DUP5 ADD SWAP1 PUSH2 0x1441 JUMP JUMPDEST SWAP3 ADD MLOAD SWAP1 PUSH1 0x60 DUP2 DUP5 SUB SWAP2 ADD MSTORE PUSH2 0x1441 JUMP JUMPDEST SWAP1 JUMP JUMPDEST SWAP2 DUP2 PUSH1 0x1F DUP5 ADD SLT ISZERO PUSH2 0x27D JUMPI DUP3 CALLDATALOAD SWAP2 PUSH1 0x1 PUSH1 0x1 PUSH1 0x40 SHL SUB DUP4 GT PUSH2 0x27D JUMPI PUSH1 0x20 DUP4 DUP2 DUP7 ADD SWAP6 ADD ADD GT PUSH2 0x27D JUMPI JUMP JUMPDEST PUSH1 0x40 PUSH1 0x3 NOT DUP3 ADD SLT PUSH2 0x27D JUMPI PUSH1 0x1 PUSH1 0x1 PUSH1 0x40 SHL SUB SWAP2 PUSH1 0x4 CALLDATALOAD DUP4 DUP2 GT PUSH2 0x27D JUMPI DUP3 PUSH2 0x1511 SWAP2 PUSH1 0x4 ADD PUSH2 0x14B8 JUMP JUMPDEST SWAP4 SWAP1 SWAP4 SWAP3 PUSH1 0x24 CALLDATALOAD SWAP2 DUP3 GT PUSH2 0x27D JUMPI PUSH2 0x152B SWAP2 PUSH1 0x4 ADD PUSH2 0x14B8 JUMP JUMPDEST SWAP1 SWAP2 JUMP JUMPDEST SWAP1 PUSH1 0x1 DUP3 DUP2 SHR SWAP3 AND DUP1 ISZERO PUSH2 0x155F JUMPI JUMPDEST PUSH1 0x20 DUP4 LT EQ PUSH2 0x1549 JUMPI JUMP JUMPDEST PUSH4 0x4E487B71 PUSH1 0xE0 SHL PUSH1 0x0 MSTORE PUSH1 0x22 PUSH1 0x4 MSTORE PUSH1 0x24 PUSH1 0x0 REVERT JUMPDEST SWAP2 PUSH1 0x7F AND SWAP2 PUSH2 0x153E JUMP JUMPDEST PUSH1 0x80 DUP2 ADD SWAP1 DUP2 LT PUSH1 0x1 PUSH1 0x1 PUSH1 0x40 SHL SUB DUP3 GT OR PUSH2 0x82D JUMPI PUSH1 0x40 MSTORE JUMP JUMPDEST PUSH1 0xC0 DUP2 ADD SWAP1 DUP2 LT PUSH1 0x1 PUSH1 0x1 PUSH1 0x40 SHL SUB DUP3 GT OR PUSH2 0x82D JUMPI PUSH1 0x40 MSTORE JUMP JUMPDEST SWAP1 PUSH1 0x1F DUP1 NOT SWAP2 ADD AND DUP2 ADD SWAP1 DUP2 LT PUSH1 0x1 PUSH1 0x1 PUSH1 0x40 SHL SUB DUP3 GT OR PUSH2 0x82D JUMPI PUSH1 0x40 MSTORE JUMP JUMPDEST SWAP1 PUSH1 0x40 MLOAD SWAP2 DUP3 PUSH1 0x0 DUP3 SLOAD SWAP3 PUSH2 0x15D4 DUP5 PUSH2 0x152F JUMP JUMPDEST SWAP1 DUP2 DUP5 MSTORE PUSH1 0x1 SWAP5 DUP6 DUP2 AND SWAP1 DUP2 PUSH1 0x0 EQ PUSH2 0x1643 JUMPI POP PUSH1 0x1 EQ PUSH2 0x1600 JUMPI JUMPDEST POP POP PUSH2 0x15FE SWAP3 POP SUB DUP4 PUSH2 0x159F JUMP JUMPDEST JUMP JUMPDEST SWAP1 SWAP4 SWAP2 POP PUSH1 0x0 MSTORE PUSH1 0x20 SWAP1 DUP2 PUSH1 0x0 KECCAK256 SWAP4 PUSH1 0x0 SWAP2 JUMPDEST DUP2 DUP4 LT PUSH2 0x162B JUMPI POP POP PUSH2 0x15FE SWAP4 POP DUP3 ADD ADD CODESIZE DUP1 PUSH2 0x15F0 JUMP JUMPDEST DUP6 SLOAD DUP9 DUP5 ADD DUP6 ADD MSTORE SWAP5 DUP6 ADD SWAP5 DUP8 SWAP5 POP SWAP2 DUP4 ADD SWAP2 PUSH2 0x1613 JUMP JUMPDEST SWAP2 POP POP PUSH2 0x15FE SWAP5 POP PUSH1 0x20 SWAP3 POP PUSH1 0xFF NOT AND DUP3 DUP5 ADD MSTORE ISZERO ISZERO PUSH1 0x5 SHL DUP3 ADD ADD CODESIZE DUP1 PUSH2 0x15F0 JUMP JUMPDEST SWAP3 PUSH1 0x1 PUSH1 0x1 PUSH1 0x60 SHL SUB PUSH2 0x14B5 SWAP6 SWAP4 PUSH2 0x1699 SWAP4 PUSH1 0x1 DUP1 PUSH1 0xA0 SHL SUB AND DUP7 MSTORE AND PUSH1 0x20 DUP6 ADD MSTORE PUSH1 0x80 PUSH1 0x40 DUP6 ADD MSTORE PUSH1 0x80 DUP5 ADD SWAP1 PUSH2 0x1441 JUMP JUMPDEST SWAP2 PUSH1 0x60 DUP2 DUP5 SUB SWAP2 ADD MSTORE PUSH2 0x1441 JUMP JUMPDEST SWAP3 SWAP2 SWAP3 PUSH1 0x1 PUSH1 0x1 PUSH1 0x40 SHL SUB DUP3 GT PUSH2 0x82D JUMPI PUSH1 0x40 MLOAD SWAP2 PUSH2 0x16D0 PUSH1 0x1F DUP3 ADD PUSH1 0x1F NOT AND PUSH1 0x20 ADD DUP5 PUSH2 0x159F JUMP JUMPDEST DUP3 SWAP5 DUP2 DUP5 MSTORE DUP2 DUP4 ADD GT PUSH2 0x27D JUMPI DUP3 DUP2 PUSH1 0x20 SWAP4 DUP5 PUSH1 0x0 SWAP7 ADD CALLDATACOPY ADD ADD MSTORE JUMP JUMPDEST SWAP1 DUP1 PUSH1 0x1F DUP4 ADD SLT ISZERO PUSH2 0x27D JUMPI DUP2 PUSH1 0x20 PUSH2 0x14B5 SWAP4 CALLDATALOAD SWAP2 ADD PUSH2 0x16A7 JUMP JUMPDEST PUSH1 0x40 PUSH1 0x3 NOT DUP3 ADD SLT PUSH2 0x27D JUMPI PUSH1 0x4 CALLDATALOAD SWAP1 PUSH1 0x1 PUSH1 0x1 PUSH1 0x40 SHL SUB DUP3 GT PUSH2 0x27D JUMPI PUSH2 0x1732 SWAP2 PUSH1 0x4 ADD PUSH2 0x16ED JUMP JUMPDEST SWAP1 PUSH1 0x24 CALLDATALOAD SWAP1 JUMP JUMPDEST DUP1 SLOAD DUP3 LT ISZERO PUSH2 0x1755 JUMPI PUSH1 0x0 MSTORE PUSH1 0x3 PUSH1 0x20 PUSH1 0x0 KECCAK256 SWAP2 MUL ADD SWAP1 PUSH1 0x0 SWAP1 JUMP JUMPDEST PUSH4 0x4E487B71 PUSH1 0xE0 SHL PUSH1 0x0 MSTORE PUSH1 0x32 PUSH1 0x4 MSTORE PUSH1 0x24 PUSH1 0x0 REVERT JUMPDEST DUP2 MLOAD PUSH1 0x20 DUP1 DUP5 ADD MLOAD PUSH1 0xA0 SHL PUSH1 0x1 PUSH1 0x1 PUSH1 0xA0 SHL SUB NOT AND PUSH1 0x1 PUSH1 0x1 PUSH1 0xA0 SHL SUB SWAP3 SWAP1 SWAP3 AND SWAP2 SWAP1 SWAP2 OR DUP3 SSTORE PUSH1 0x40 DUP4 ADD MLOAD DUP1 MLOAD PUSH1 0x1 SWAP4 PUSH1 0x1 PUSH1 0x1 PUSH1 0x40 SHL SUB SWAP4 SWAP2 DUP2 DUP7 ADD SWAP1 DUP6 DUP2 GT PUSH2 0x82D JUMPI PUSH2 0x17BB DUP3 SLOAD PUSH2 0x152F JUMP JUMPDEST SWAP5 PUSH1 0x1F SWAP6 DUP7 DUP2 GT PUSH2 0x1975 JUMPI JUMPDEST POP DUP5 SWAP1 DUP7 DUP4 GT PUSH1 0x1 EQ PUSH2 0x1907 JUMPI SWAP2 DUP1 PUSH1 0x2 SWAP5 SWAP3 PUSH1 0x60 SWAP7 SWAP5 PUSH1 0x0 SWAP3 PUSH2 0x18FC JUMPI JUMPDEST POP POP PUSH1 0x0 NOT PUSH1 0x3 DUP4 SWAP1 SHL SHR NOT AND SWAP1 DUP10 SHL OR SWAP1 SSTORE JUMPDEST ADD SWAP6 ADD MLOAD SWAP1 DUP2 MLOAD SWAP4 DUP5 GT PUSH2 0x82D JUMPI PUSH2 0x1812 DUP7 SLOAD PUSH2 0x152F JUMP JUMPDEST DUP4 DUP2 GT PUSH2 0x18B6 JUMPI JUMPDEST POP DUP1 SWAP3 DUP5 GT PUSH1 0x1 EQ PUSH2 0x1853 JUMPI POP SWAP3 DUP3 SWAP4 SWAP2 DUP4 SWAP3 PUSH1 0x0 SWAP5 PUSH2 0x1848 JUMPI JUMPDEST POP POP SHL SWAP2 PUSH1 0x0 NOT SWAP1 PUSH1 0x3 SHL SHR NOT AND OR SWAP1 SSTORE JUMP JUMPDEST ADD MLOAD SWAP3 POP CODESIZE DUP1 PUSH2 0x1835 JUMP JUMPDEST SWAP2 SWAP1 DUP4 PUSH1 0x1F NOT DUP2 AND DUP8 PUSH1 0x0 MSTORE DUP5 PUSH1 0x0 KECCAK256 SWAP5 PUSH1 0x0 SWAP1 JUMPDEST DUP9 DUP4 DUP4 LT PUSH2 0x189C JUMPI POP POP POP LT PUSH2 0x1883 JUMPI JUMPDEST POP POP POP DUP2 SHL ADD SWAP1 SSTORE JUMP JUMPDEST ADD MLOAD PUSH1 0x0 NOT PUSH1 0xF8 DUP5 PUSH1 0x3 SHL AND SHR NOT AND SWAP1 SSTORE CODESIZE DUP1 DUP1 PUSH2 0x1879 JUMP JUMPDEST DUP6 DUP8 ADD MLOAD DUP9 SSTORE SWAP1 SWAP7 ADD SWAP6 SWAP5 DUP6 ADD SWAP5 DUP8 SWAP4 POP SWAP1 DUP2 ADD SWAP1 PUSH2 0x1868 JUMP JUMPDEST DUP7 PUSH1 0x0 MSTORE DUP2 PUSH1 0x0 KECCAK256 DUP5 DUP1 DUP8 ADD PUSH1 0x5 SHR DUP3 ADD SWAP3 DUP5 DUP9 LT PUSH2 0x18F3 JUMPI JUMPDEST ADD PUSH1 0x5 SHR ADD SWAP1 DUP7 SWAP1 JUMPDEST DUP3 DUP2 LT PUSH2 0x18E7 JUMPI POP POP PUSH2 0x181A JUMP JUMPDEST PUSH1 0x0 DUP2 SSTORE ADD DUP7 SWAP1 PUSH2 0x18D9 JUMP JUMPDEST SWAP3 POP DUP2 SWAP3 PUSH2 0x18D0 JUMP JUMPDEST ADD MLOAD SWAP1 POP CODESIZE DUP1 PUSH2 0x17E6 JUMP JUMPDEST DUP9 SWAP3 SWAP2 PUSH1 0x1F NOT DUP4 AND SWAP2 DUP6 PUSH1 0x0 MSTORE DUP8 PUSH1 0x0 KECCAK256 SWAP3 PUSH1 0x0 JUMPDEST DUP10 DUP3 DUP3 LT PUSH2 0x195F JUMPI POP POP SWAP2 PUSH1 0x60 SWAP8 SWAP6 SWAP4 SWAP2 DUP6 PUSH1 0x2 SWAP9 SWAP7 SWAP5 LT PUSH2 0x1946 JUMPI JUMPDEST POP POP POP DUP2 SHL ADD SWAP1 SSTORE PUSH2 0x17FA JUMP JUMPDEST ADD MLOAD PUSH1 0x0 NOT PUSH1 0xF8 DUP5 PUSH1 0x3 SHL AND SHR NOT AND SWAP1 SSTORE CODESIZE DUP1 DUP1 PUSH2 0x1939 JUMP JUMPDEST DUP4 DUP6 ADD MLOAD DUP7 SSTORE DUP14 SWAP8 SWAP1 SWAP6 ADD SWAP5 SWAP4 DUP5 ADD SWAP4 ADD PUSH2 0x191C JUMP JUMPDEST PUSH1 0x0 DUP5 DUP2 MSTORE DUP7 DUP2 KECCAK256 DUP9 DUP1 DUP7 ADD PUSH1 0x5 SHR DUP3 ADD SWAP4 DUP10 DUP8 LT PUSH2 0x19B2 JUMPI JUMPDEST ADD PUSH1 0x5 SHR ADD SWAP2 DUP11 SWAP1 JUMPDEST DUP4 DUP2 LT PUSH2 0x19A7 JUMPI POP POP POP PUSH2 0x17C7 JUMP JUMPDEST DUP3 DUP2 SSTORE ADD DUP11 SWAP1 PUSH2 0x1998 JUMP JUMPDEST SWAP4 POP DUP2 SWAP4 PUSH2 0x198F JUMP JUMPDEST SWAP1 DUP1 PUSH1 0x20 SWAP4 SWAP3 DUP2 DUP5 MSTORE DUP5 DUP5 ADD CALLDATACOPY PUSH1 0x0 DUP3 DUP3 ADD DUP5 ADD MSTORE PUSH1 0x1F ADD PUSH1 0x1F NOT AND ADD ADD SWAP1 JUMP JUMPDEST SWAP2 SWAP1 PUSH2 0x19EB JUMPI PUSH2 0x15FE SWAP2 PUSH2 0x176B JUMP JUMPDEST PUSH4 0x4E487B71 PUSH1 0xE0 SHL PUSH1 0x0 MSTORE PUSH1 0x0 PUSH1 0x4 MSTORE PUSH1 0x24 PUSH1 0x0 REVERT JUMPDEST SWAP1 PUSH1 0x40 MLOAD PUSH2 0x1A0E DUP2 PUSH2 0x1569 JUMP JUMPDEST PUSH1 0x60 PUSH2 0x1A43 PUSH1 0x2 DUP4 SWAP6 DUP1 SLOAD PUSH1 0x1 DUP1 PUSH1 0xA0 SHL SUB DUP2 AND DUP7 MSTORE PUSH1 0xA0 SHR PUSH1 0x20 DUP7 ADD MSTORE PUSH2 0x1A38 PUSH1 0x1 DUP3 ADD PUSH2 0x15C0 JUMP JUMPDEST PUSH1 0x40 DUP7 ADD MSTORE ADD PUSH2 0x15C0 JUMP JUMPDEST SWAP2 ADD MSTORE JUMP JUMPDEST PUSH1 0x1 PUSH1 0x1 PUSH1 0x40 SHL SUB DUP2 GT PUSH2 0x82D JUMPI PUSH1 0x5 SHL PUSH1 0x20 ADD SWAP1 JUMP JUMPDEST SWAP1 PUSH1 0x3 PUSH1 0x40 MLOAD DUP3 DUP5 DUP3 CALLDATACOPY PUSH1 0x20 DUP2 DUP5 DUP2 ADD PUSH1 0x1 DUP2 MSTORE SUB ADD SWAP1 KECCAK256 SWAP2 PUSH1 0x20 PUSH1 0xFF PUSH1 0x1 DUP6 ADD SLOAD TIMESTAMP LT ISZERO SWAP5 SLOAD PUSH1 0xA0 SHR AND SWAP5 DUP3 PUSH1 0x40 MLOAD SWAP4 DUP5 SWAP3 DUP4 CALLDATACOPY DUP2 ADD PUSH1 0x5 DUP2 MSTORE SUB ADD SWAP1 KECCAK256 SLOAD LT ISZERO SWAP2 PUSH2 0x1AD7 JUMPI DUP1 DUP1 PUSH2 0x1AD0 JUMPI JUMPDEST PUSH2 0x1AC9 JUMPI PUSH2 0x1AC3 JUMPI PUSH2 0x1ABE JUMPI PUSH1 0x0 SWAP1 JUMP JUMPDEST PUSH1 0x3 SWAP1 JUMP JUMPDEST POP PUSH1 0x1 SWAP1 JUMP JUMPDEST POP POP PUSH1 0x4 SWAP1 JUMP JUMPDEST POP DUP2 PUSH2 0x1AAD JUMP JUMPDEST POP POP PUSH1 0x2 SWAP1 JUMP INVALID LOG2 PUSH5 0x6970667358 0x22 SLT KECCAK256 SWAP8 0xE8 INVALID RETURN 0xD 0xC9 0xD6 0xE6 STOP PC PUSH32 0xE4907571DEB682DF013FFAA40D0A519B4640F057C864736F6C63430008140033 "},"methodIdentifiers":{"SUSPICIOUS_THRESHOLD()":"7c27d56d","addCheckpoint(string,string,string)":"2b9e3a62","batches(string)":"7ef1446a","checkpoints(string,uint256)":"cc6aae35","getBatch(string)":"f9ca4274","getBatchStatus(string)":"ee6a6d0e","getCheckpoints(string)":"686f624e","getManufacturer(address)":"191bcef6","getReports(string)":"1a68638a","hasReported(string,address)":"db0cc2c0","isManufacturer(address)":"17d4a491","isSuspicious(string)":"958fc13a","manufacturers(address)":"6b5eb09c","recallBatch(string)":"52969187","registerBatch(string,string,uint256)":"8d5c0a23","registerManufacturer(string,string)":"30b15caa","reportBatch(string,string)":"1d4a81e7","reportCount(string)":"a465f7cd","reports(string,uint256)":"f9158e99"}}}}}