{
  "_format": "hh-sol-artifact-1",
  "contractName": "MediProof",
  "sourceName": "contracts/MediProof.sol",
  "abi": [
    {
      "inputs": [],
      "name": "AlreadyRecalled",
      "type": "error"
    },
    {
      "inputs": [],
      "name": "AlreadyRegistered",
      "type": "error"
    },
    {
      "inputs": [],
      "name": "AlreadyReported",
      "type": "error"
    },
    {
      "inputs": [
        {
          "internalType": "string",
          "name": "batchId",
          "type": "string"
        }
      ],
      "name": "BatchAlreadyExists",
      "type": "error"
    },
    {
      "inputs": [
        {
          "internalType": "string",
          "name": "batchId",
          "type": "string"
        }
      ],
      "name": "BatchDoesNotExist",
      "type": "error"
    },
    {
      "inputs": [
        {
          "internalType": "string",
          "name": "field",
          "type": "string"
        }
      ],
      "name": "EmptyField",
      "type": "error"
    },
    {
      "inputs": [],
      "name": "ExpiryInPast",
      "type": "error"
    },
    {
      "inputs": [],
      "name": "NotBatchManufacturer",
      "type": "error"
    },
    {
      "inputs": [],
      "name": "NotRegisteredManufacturer",
      "type": "error"
    },
    {
      "inputs": [],
      "name": "Unauthorized",
      "type": "error"
    },
    {
      "anonymous": false,
      "inputs": [
        {
          "indexed": true,
          "internalType": "string",
          "name": "batchId",
          "type": "string"
        },
        {
          "indexed": true,
          "internalType": "address",
          "name": "manufacturer",
          "type": "address"
        },
        {
          "indexed": false,
          "internalType": "uint256",
          "name": "timestamp",
          "type": "uint256"
        }
      ],
      "name": "BatchRecalled",
      "type": "event"
    },
    {
      "anonymous": false,
      "inputs": [
        {
          "indexed": true,
          "internalType": "string",
          "name": "batchId",
          "type": "string"
        },
        {
          "indexed": true,
          "internalType": "address",
          "name": "manufacturer",
          "type": "address"
        },
        {
          "indexed": false,
          "internalType": "string",
          "name": "ipfsHash",
          "type": "string"
        },
        {
          "indexed": false,
          "internalType": "uint256",
          "name": "expiryDate",
          "type": "uint256"
        },
        {
          "indexed": false,
          "internalType": "uint256",
          "name": "timestamp",
          "type": "uint256"
        }
      ],
      "name": "BatchRegistered",
      "type": "event"
    },
    {
      "anonymous": false,
      "inputs": [
        {
          "indexed": true,
          "internalType": "string",
          "name": "batchId",
          "type": "string"
        },
        {
          "indexed": true,
          "internalType": "address",
          "name": "reporter",
          "type": "address"
        },
        {
          "indexed": false,
          "internalType": "string",
          "name": "reason",
          "type": "string"
        },
        {
          "indexed": false,
          "internalType": "uint256",
          "name": "timestamp",
          "type": "uint256"
        }
      ],
      "name": "BatchReported",
      "type": "event"
    },
    {
      "anonymous": false,
      "inputs": [
        {
          "indexed": true,
          "internalType": "string",
          "name": "batchId",
          "type": "string"
        },
        {
          "indexed": false,
          "internalType": "uint256",
          "name": "reportCount",
          "type": "uint256"
        },
        {
          "indexed": false,
          "internalType": "uint256",
          "name": "timestamp",
          "type": "uint256"
        }
      ],
      "name": "BatchSuspicious",
      "type": "event"
    },
    {
      "anonymous": false,
      "inputs": [
        {
          "indexed": true,
          "internalType": "string",
          "name": "batchId",
          "type": "string"
        },
        {
          "indexed": true,
          "internalType": "address",
          "name": "recorder",
          "type": "address"
        },
        {
          "indexed": false,
          "internalType": "string",
          "name": "location",
          "type": "string"
        },
        {
          "indexed": false,
          "internalType": "uint256",
          "name": "timestamp",
          "type": "uint256"
        }
      ],
      "name": "CheckpointAdded",
      "type": "event"
    },
    {
      "anonymous": false,
      "inputs": [
        {
          "indexed": true,
          "internalType": "address",
          "name": "wallet",
          "type": "address"
        },
        {
          "indexed": false,
          "internalType": "string",
          "name": "name",
          "type": "string"
        },
        {
          "indexed": false,
          "internalType": "string",
          "name": "licenseNumber",
          "type": "string"
        },
        {
          "indexed": false,
          "internalType": "uint256",
          "name": "timestamp",
          "type": "uint256"
        }
      ],
      "name": "ManufacturerRegistered",
      "type": "event"
    },
    {
      "inputs": [],
      "name": "SUSPICIOUS_THRESHOLD",
      "outputs": [
        {
          "internalType": "uint256",
          "name": "",
          "type": "uint256"
        }
      ],
      "stateMutability": "view",
      "type": "function"
    },
    {
      "inputs": [
        {
          "internalType": "string",
          "name": "batchId",
          "type": "string"
        },
        {
          "internalType": "string",
          "name": "location",
          "type": "string"
        },
        {
          "internalType": "string",
          "name": "note",
          "type": "string"
        }
      ],
      "name": "addCheckpoint",
      "outputs": [],
      "stateMutability": "nonpayable",
      "type": "function"
    },
    {
      "inputs": [
        {
          "internalType": "string",
          "name": "",
          "type": "string"
        }
      ],
      "name": "batches",
      "outputs": [
        {
          "internalType": "address",
          "name": "manufacturer",
          "type": "address"
        },
        {
          "internalType": "bool",
          "name": "isRecalled",
          "type": "bool"
        },
        {
          "internalType": "uint88",
          "name": "createdAt",
          "type": "uint88"
        },
        {
          "internalType": "uint256",
          "name": "expiryDate",
          "type": "uint256"
        },
        {
          "internalType": "string",
          "name": "batchId",
          "type": "string"
        },
        {
          "internalType": "string",
          "name": "ipfsHash",
          "type": "string"
        }
      ],
      "stateMutability": "view",
      "type": "function"
    },
    {
      "inputs": [
        {
          "internalType": "string",
          "name": "",
          "type": "string"
        },
        {
          "internalType": "uint256",
          "name": "",
          "type": "uint256"
        }
      ],
      "name": "checkpoints",
      "outputs": [
        {
          "internalType": "address",
          "name": "recorder",
          "type": "address"
        },
        {
          "internalType": "uint96",
          "name": "timestamp",
          "type": "uint96"
        },
        {
          "internalType": "string",
          "name": "location",
          "type": "string"
        },
        {
          "internalType": "string",
          "name": "note",
          "type": "string"
        }
      ],
      "stateMutability": "view",
      "type": "function"
    },
    {
      "inputs": [
        {
          "internalType": "string",
          "name": "batchId",
          "type": "string"
        }
      ],
      "name": "getBatch",
      "outputs": [
        {
          "components": [
            {
              "internalType": "address",
              "name": "manufacturer",
              "type": "address"
            },
            {
              "internalType": "bool",
              "name": "isRecalled",
              "type": "bool"
            },
            {
              "internalType": "uint88",
              "name": "createdAt",
              "type": "uint88"
            },
            {
              "internalType": "uint256",
              "name": "expiryDate",
              "type": "uint256"
            },
            {
              "internalType": "string",
              "name": "batchId",
              "type": "string"
            },
            {
              "internalType": "string",
              "name": "ipfsHash",
              "type": "string"
            }
          ],
          "internalType": "struct MediProof.Batch",
          "name": "",
          "type": "tuple"
        }
      ],
      "stateMutability": "view",
      "type": "function"
    },
    {
      "inputs": [
        {
          "internalType": "string",
          "name": "batchId",
          "type": "string"
        }
      ],
      "name": "getBatchStatus",
      "outputs": [
        {
          "internalType": "uint8",
          "name": "",
          "type": "uint8"
        }
      ],
      "stateMutability": "view",
      "type": "function"
    },
    {
      "inputs": [
        {
          "internalType": "string",
          "name": "batchId",
          "type": "string"
        }
      ],
      "name": "getCheckpoints",
      "outputs": [
        {
          "components": [
            {
              "internalType": "address",
              "name": "recorder",
              "type": "address"
            },
            {
              "internalType": "uint96",
              "name": "timestamp",
              "type": "uint96"
            },
            {
              "internalType": "string",
              "name": "location",
              "type": "string"
            },
            {
              "internalType": "string",
              "name": "note",
              "type": "string"
            }
          ],
          "internalType": "struct MediProof.Checkpoint[]",
          "name": "",
          "type": "tuple[]"
        }
      ],
      "stateMutability": "view",
      "type": "function"
    },
    {
      "inputs": [
        {
          "internalType": "address",
          "name": "wallet",
          "type": "address"
        }
      ],
      "name": "getManufacturer",
      "outputs": [
        {
          "components": [
            {
              "internalType": "address",
              "name": "wallet",
              "type": "address"
            },
            {
              "internalType": "uint96",
              "name": "registeredAt",
              "type": "uint96"
            },
            {
              "internalType": "string",
              "name": "name",
              "type": "string"
            },
            {
              "internalType": "string",
              "name": "licenseNumber",
              "type": "string"
            }
          ],
          "internalType": "struct MediProof.Manufacturer",
          "name": "",
          "type": "tuple"
        }
      ],
      "stateMutability": "view",
      "type": "function"
    },
    {
      "inputs": [
        {
          "internalType": "string",
          "name": "batchId",
          "type": "string"
        }
      ],
      "name": "getReports",
      "outputs": [
        {
          "components": [
            {
              "internalType": "address",
              "name": "reporter",
              "type": "address"
            },
            {
              "internalType": "uint96",
              "name": "timestamp",
              "type": "uint96"
            },
            {
              "internalType": "string",
              "name": "batchId",
              "type": "string"
            },
            {
              "internalType": "string",
              "name": "reason",
              "type": "string"
            }
          ],
          "internalType": "struct MediProof.Report[]",
          "name": "",
          "type": "tuple[]"
        }
      ],
      "stateMutability": "view",
      "type": "function"
    },
    {
      "inputs": [
        {
          "internalType": "string",
          "name": "",
          "type": "string"
        },
        {
          "internalType": "address",
          "name": "",
          "type": "address"
        }
      ],
      "name": "hasReported",
      "outputs": [
        {
          "internalType": "bool",
          "name": "",
          "type": "bool"
        }
      ],
      "stateMutability": "view",
      "type": "function"
    },
    {
      "inputs": [
        {
          "internalType": "address",
          "name": "wallet",
          "type": "address"
        }
      ],
      "name": "isManufacturer",
      "outputs": [
        {
          "internalType": "bool",
          "name": "",
          "type": "bool"
        }
      ],
      "stateMutability": "view",
      "type": "function"
    },
    {
      "inputs": [
        {
          "internalType": "string",
          "name": "batchId",
          "type": "string"
        }
      ],
      "name": "isSuspicious",
      "outputs": [
        {
          "internalType": "bool",
          "name": "",
          "type": "bool"
        }
      ],
      "stateMutability": "view",
      "type": "function"
    },
    {
      "inputs": [
        {
          "internalType": "address",
          "name": "",
          "type": "address"
        }
      ],
      "name": "manufacturers",
      "outputs": [
        {
          "internalType": "address",
          "name": "wallet",
          "type": "address"
        },
        {
          "internalType": "uint96",
          "name": "registeredAt",
          "type": "uint96"
        },
        {
          "internalType": "string",
          "name": "name",
          "type": "string"
        },
        {
          "internalType": "string",
          "name": "licenseNumber",
          "type": "string"
        }
      ],
      "stateMutability": "view",
      "type": "function"
    },
    {
      "inputs": [
        {
          "internalType": "string",
          "name": "batchId",
          "type": "string"
        }
      ],
      "name": "recallBatch",
      "outputs": [],
      "stateMutability": "nonpayable",
      "type": "function"
    },
    {
      "inputs": [
        {
          "internalType": "string",
          "name": "batchId",
          "type": "string"
        },
        {
          "internalType": "string",
          "name": "ipfsHash",
          "type": "string"
        },
        {
          "internalType": "uint256",
          "name": "expiryDate",
          "type": "uint256"
        }
      ],
      "name": "registerBatch",
      "outputs": [],
      "stateMutability": "nonpayable",
      "type": "function"
    },
    {
      "inputs": [
        {
          "internalType": "string",
          "name": "name",
          "type": "string"
        },
        {
          "internalType": "string",
          "name": "licenseNumber",
          "type": "string"
        }
      ],
      "name": "registerManufacturer",
      "outputs": [],
      "stateMutability": "nonpayable",
      "type": "function"
    },
    {
      "inputs": [
        {
          "internalType": "string",
          "name": "batchId",
          "type": "string"
        },
        {
          "internalType": "string",
          "name": "reason",
          "type": "string"
        }
      ],
      "name": "reportBatch",
      "outputs": [],
      "stateMutability": "nonpayable",
      "type": "function"
    },
    {
      "inputs": [
        {
          "internalType": "string",
          "name": "",
          "type": "string"
        }
      ],
      "name": "reportCount",
      "outputs": [
        {
          "internalType": "uint256",
          "name": "",
          "type": "uint256"
        }
      ],
      "stateMutability": "view",
      "type": "function"
    },
    {
      "inputs": [
        {
          "internalType": "string",
          "name": "",
          "type": "string"
        },
        {
          "internalType": "uint256",
          "name": "",
          "type": "uint256"
        }
      ],
      "name": "reports",
      "outputs": [
        {
          "internalType": "address",
          "name": "reporter",
          "type": "address"
        },
        {
          "internalType": "uint96",
          "name": "timestamp",
          "type": "uint96"
        },
        {
          "internalType": "string",
          "name": "batchId",
          "type": "string"
        },
        {
          "internalType": "string",
          "name": "reason",
          "type": "string"
        }
      ],
      "stateMutability": "view",
      "type": "function"
    }
  ],
  "bytecode": "0x6080806040523461001657611b14908161001c8239f35b600080fdfe608080604052600436101561001357600080fd5b60003560e01c90816317d4a491146113cd57508063191bcef61461135e5780631a68638a1461125f5780631d4a81e7146110375780632b9e3a6214610e7957806330b15caa14610d1e5780635296918714610bd9578063686f624e14610adf5780636b5eb09c14610a7d5780637c27d56d14610a615780637ef1446a146109b05780638d5c0a23146104f7578063958fc13a146104a2578063a465f7cd14610446578063cc6aae3514610416578063db0cc2c014610391578063ee6a6d0e14610300578063f9158e99146102825763f9ca4274146100f057600080fd5b3461027d5760208060031936011261027d576004356001600160401b03811161027d576101219036906004016114b8565b606060a060409493945161013481611584565b60008152600085820152600060408201526000838201528260808201520152604051928181853760018483019081528490038301909320546001600160a01b03939084161561025457908261025092826040519384928337810160018152030190209161023d604051936101a785611584565b805486811686526affffffffffffffffffffff8487019160ff8160a01c1615158352604088019060a81c8152600184015492606089019384526101ff60036101f1600288016115c0565b9660808c01978852016115c0565b9660a08a019788526040519a8b9a828c525116908a01525115156040890152511660608701525160808601525160c060a086015260e0850190611441565b9051838203601f190160c0850152611441565b0390f35b604051634f04653760e11b8152600481018490529182916102799160248401916119bb565b0390fd5b600080fd5b3461027d5760206102aa61029536611708565b9290816040519382858094519384920161141e565b8101600281520301902090815481101561027d576102c791611739565b5080546102506102e560026102de600186016115c0565b94016115c0565b60405193849360a081901c906001600160a01b031685611666565b3461027d57602036600319011261027d576004356001600160401b03811161027d576103309036906004016114b8565b6040518183823760018183019081528190036020019020546001600160a01b03161561036d5761036290602092611a5f565b60ff60405191168152f35b610279604051928392634f04653760e11b84526020600485015260248401916119bb565b3461027d57604036600319011261027d576004356001600160401b03811161027d576103c19036906004016116ed565b6024356001600160a01b038116919082900361027d5760206103f091816040519382858094519384920161141e565b8101600481520301902090600052602052602060ff604060002054166040519015158152f35b3461027d57602061042961029536611708565b8101600381520301902090815481101561027d576102c791611739565b3461027d57602036600319011261027d576004356001600160401b03811161027d5761048f602061047c819336906004016116ed565b816040519382858094519384920161141e565b8101600581520301902054604051908152f35b3461027d57602036600319011261027d576004356001600160401b03811161027d57600360206104d7819336906004016114b8565b919082604051938492833781016005815203019020541015604051908152f35b3461027d57606036600319011261027d576001600160401b0360043581811161027d576105289036906004016114b8565b60249291923582811161027d576105439036906004016114b8565b93909233600052600060205260018060a01b03903382604060002054160361099e57831561096e57851561093d5742604435111561092b57816040518585823760208187810160018152030190205416610908576040516105a381611584565b3381526020810160008152604082016affffffffffffffffffffff42168152606083019060443582526105d73689896116a7565b92608085019384526105ea368c8c6116a7565b60a0860152604051898982376020818b81016001815203019020968551169060ff60a01b9051151560a01b16916affffffffffffffffffffff60a81b905160a81b1691171785555160018501555180519083821161082d5761064f600286015461152f565b601f81116108c1575b50602090601f831160011461084e5760a093929160009183610843575b50508160011b916000199060031b1c19161760028501555b0151805191821161082d576106a5600384015461152f565b601f81116107e2575b50602090601f831160011461074e578261072c95937fd38066324d950e844ce76a93c064109a19f4c25b2d75f699b579d856dccd15b2979593600393600092610743575b50508160011b9160001990841b1c1916179101555b81604051928392833781016000815203902092604051946060865260608601916119bb565b9260443560208201524260408201528033940390a3005b015190508a806106f2565b90601f198316916003850160005260206000209260005b8181106107ca5750937fd38066324d950e844ce76a93c064109a19f4c25b2d75f699b579d856dccd15b29795936003936001938361072c9a98106107b2575b505050811b01910155610707565b015160001983861b60f8161c191690558a80806107a4565b92936020600181928786015181550195019301610765565b600384016000526020600020601f840160051c81019160208510610823575b601f0160051c01905b81811061081757506106ae565b6000815560010161080a565b9091508190610801565b634e487b7160e01b600052604160045260246000fd5b015190508a80610675565b906002860160005260206000209160005b601f19851681106108a9575091839160019360a09695601f19811610610890575b505050811b01600285015561068d565b015160001960f88460031b161c191690558a8080610880565b9192602060018192868501518155019401920161085f565b600286016000526020600020601f840160051c810160208510610901575b601f830160051c820181106108f5575050610658565b600081556001016108df565b50806108df565b604051631b047e7360e21b815260206004820152806102796024820187876119bb565b60405163079955a160e41b8152600490fd5b60405163a69290e760e01b81526020600482015260086024820152670d2e0cce690c2e6d60c31b6044820152606490fd5b60405163a69290e760e01b815260206004820152600760248201526618985d18da125960ca1b6044820152606490fd5b6040516327c648c360e01b8152600490fd5b3461027d57602036600319011261027d576004356001600160401b03811161027d57602061047c6109e59236906004016116ed565b810160018152030190208054610250600183015492610a53610a156003610a0e600285016115c0565b93016115c0565b9160405195869560018060a01b038116875260ff8160a01c161515602088015260a81c6040870152606086015260c0608086015260c0850190611441565b9083820360a0850152611441565b3461027d57600036600319011261027d57602060405160038152f35b3461027d57602036600319011261027d576001600160a01b0380610a9f611408565b166000526000602052604060002090610250825492610acc6002610ac5600184016115c0565b92016115c0565b906040519485948160a01c911685611666565b3461027d5760208060031936011261027d576004356001600160401b03811161027d57610b109036906004016114b8565b6040519291819084378201918181600394858152030190208054610b3381611a48565b93610b41604051958661159f565b8185528385018093600052846000206000915b848310610bb757604080518881528951818a01819052600092600582901b83018101918a918c9085015b828710610b8b5785850386f35b909192938280610ba7600193603f198a82030186528851611466565b9601920196019592919092610b7e565b8387600192610bc8859b9a9b611a01565b815201920192019190969596610b54565b3461027d5760208060031936011261027d576004356001600160401b03811161027d57610c0a9036906004016114b8565b9060405182828237600181840190815281900384019020546001600160a01b0390811615610cf857604051838382378481858101600181520301902054163303610ce65760ff60405183838237848185810160018152030190205460a01c16610cd45760405182828237600183820190815281900384019020805460ff60a01b1916600160a01b179055604051918291819083378101600081520390207f03068fe52a60a8da503a950b52784e0f6fdbca2245c2dc817cde96d74dbc1dd8604051924284523393a3005b60405163cffc9f8560e01b8152600490fd5b604051631cabf07160e11b8152600490fd5b50604051634f04653760e11b8152600481018490529182916102799160248401916119bb565b3461027d57610d2c366114e5565b9192908315610e4d578215610e1757336000818152602081905260409020546001600160a01b031614610e05577f4a9379aadad74a32f0c7cbe50dcc033680f93fd3dd8e57a1d6c4c2d2f13c010d92610de8610df693610dd6604051610d9181611569565b3381526001600160601b0342166020820152610dae368a856116a7565b6040820152610dbe3686886116a7565b6060820152336000526000602052604060002061176b565b604051966060885260608801916119bb565b9185830360208701526119bb565b914260408201528033930390a2005b604051630ea075bf60e21b8152600490fd5b60405163a69290e760e01b815260206004820152600d60248201526c3634b1b2b739b2a73ab6b132b960991b6044820152606490fd5b606460405163a69290e760e01b81526020600482015260046024820152636e616d6560e01b6044820152fd5b3461027d57606036600319011261027d576001600160401b0360043581811161027d57610eaa9036906004016114b8565b60249291923582811161027d57610ec59036906004016114b8565b909260443590811161027d57610edf9036906004016114b8565b92604051958181883760018783019081528790036020908101909720546001600160a01b031615611012578315610fe157610f5d60405183838237888185810160038152030190209360405196610f3588611569565b3388526001600160601b0342168a890152610f5136888b6116a7565b604089015236916116a7565b60608601528254600160401b81101561082d577f02f9762f2c7ba2b8db7a61486cdc8f2d18814743b9b56d3a3ff84064d13648dd95610fa882610fd3966001610fae95018155611739565b906119dc565b81604051928392833781016000815203902093604051926040845260408401916119bb565b9342908201528033940390a3005b60405163a69290e760e01b81526004810188905260086024820152673637b1b0ba34b7b760c11b6044820152606490fd5b604051634f04653760e11b8152600481018890529182916102799160248401916119bb565b3461027d57611045366114e5565b9290604051938383863760018585019081528590036020908101909520546001600160a01b03161561123c57801561120d57604051848482378581868101600481520301902033600052855260ff604060002054166111fb5760405184848237858186810160048152030190203360005285526040600020600160ff198254161790556040518484823785818681016005815203019020916001835401809355604051858582378681878101600281520301902060405161110581611569565b3381526001600160601b034216888201526111213688886116a7565b60408201526111313685856116a7565b6060820152815491600160401b83101561082d5782610fa891600161115895018155611739565b7ffd8432736bd96d6a42fa381b51b5e244a4c3a1498bdd2e09e1b3dfa4fc448dd86111a160405187878237808881016000815203902092604051946040865260408601916119bb565b9242888201528033940390a3600381146111b757005b826040927f8c8802901215474dbcbe3d9f475d04dbb3bbdefa007e57aaced8caf8b74c574994845192839283378101600081520390209382519182524290820152a2005b60405163770c15e360e01b8152600490fd5b60405163a69290e760e01b81526004810186905260066024820152653932b0b9b7b760d11b6044820152606490fd5b604051634f04653760e11b815260048101869052806102796024820187876119bb565b3461027d5760208060031936011261027d576004356001600160401b03811161027d57611291829136906004016114b8565b919082604051938492833781016002815203019020908154916112b383611a48565b926112c1604051948561159f565b8084528284018092600052836000206000915b83831061133b5750505050604051918083019381845251809452604083019360408160051b85010192916000955b82871061130f5785850386f35b90919293828061132b600193603f198a82030186528851611466565b9601920196019592919092611302565b60038660019261134d859a999a611a01565b8152019201920191909594956112d4565b3461027d57602036600319011261027d57611377611408565b60608060405161138681611569565b6000815260006020820152816040820152015260018060a01b031660005260006020526102506113b96040600020611a01565b604051918291602083526020830190611466565b3461027d57602036600319011261027d576020906001600160a01b03806113f2611408565b1690816000526000845260406000205416148152f35b600435906001600160a01b038216820361027d57565b60005b8381106114315750506000910152565b8181015183820152602001611421565b9060209161145a8151809281855285808601910161141e565b601f01601f1916010190565b6114b59160018060a01b0382511681526001600160601b03602083015116602082015260606114a46040840151608060408501526080840190611441565b920151906060818403910152611441565b90565b9181601f8401121561027d578235916001600160401b03831161027d576020838186019501011161027d57565b604060031982011261027d576001600160401b039160043583811161027d5782611511916004016114b8565b9390939260243591821161027d5761152b916004016114b8565b9091565b90600182811c9216801561155f575b602083101461154957565b634e487b7160e01b600052602260045260246000fd5b91607f169161153e565b608081019081106001600160401b0382111761082d57604052565b60c081019081106001600160401b0382111761082d57604052565b90601f801991011681019081106001600160401b0382111761082d57604052565b90604051918260008254926115d48461152f565b9081845260019485811690816000146116435750600114611600575b50506115fe9250038361159f565b565b9093915060005260209081600020936000915b81831061162b5750506115fe935082010138806115f0565b85548884018501529485019487945091830191611613565b9150506115fe94506020925060ff191682840152151560051b82010138806115f0565b926001600160601b036114b595936116999360018060a01b03168652166020850152608060408501526080840190611441565b916060818403910152611441565b9291926001600160401b03821161082d57604051916116d0601f8201601f19166020018461159f565b82948184528183011161027d578281602093846000960137010152565b9080601f8301121561027d578160206114b5933591016116a7565b604060031982011261027d57600435906001600160401b03821161027d57611732916004016116ed565b9060243590565b8054821015611755576000526003602060002091020190600090565b634e487b7160e01b600052603260045260246000fd5b815160208084015160a01b6001600160a01b0319166001600160a01b0392909216919091178255604083015180516001936001600160401b0393918186019085811161082d576117bb825461152f565b94601f95868111611975575b50849086831160011461190757918060029492606096946000926118fc575b5050600019600383901b1c191690891b1790555b0195015190815193841161082d57611812865461152f565b8381116118b6575b50809284116001146118535750928293918392600094611848575b50501b916000199060031b1c1916179055565b015192503880611835565b919083601f1981168760005284600020946000905b8883831061189c5750505010611883575b505050811b019055565b015160001960f88460031b161c19169055388080611879565b858701518855909601959485019487935090810190611868565b86600052816000208480870160051c8201928488106118f3575b0160051c019086905b8281106118e757505061181a565b600081550186906118d9565b925081926118d0565b0151905038806117e6565b889291601f1983169185600052876000209260005b8982821061195f5750509160609795939185600298969410611946575b505050811b0190556117fa565b015160001960f88460031b161c19169055388080611939565b8385015186558d9790950194938401930161191c565b60008481528681208880860160051c8201938987106119b2575b0160051c01918a905b8381106119a7575050506117c7565b828155018a90611998565b9350819361198f565b908060209392818452848401376000828201840152601f01601f1916010190565b91906119eb576115fe9161176b565b634e487b7160e01b600052600060045260246000fd5b90604051611a0e81611569565b6060611a4360028395805460018060a01b038116865260a01c6020860152611a38600182016115c0565b6040860152016115c0565b910152565b6001600160401b03811161082d5760051b60200190565b90600360405182848237602081848101600181520301902091602060ff6001850154421015945460a01c16948260405193849283378101600581520301902054101591611ad7578080611ad0575b611ac957611ac357611abe57600090565b600390565b50600190565b5050600490565b5081611aad565b505060029056fea264697066735822122097e8fef30dc9d6e600587fe4907571deb682df013ffaa40d0a519b4640f057c864736f6c63430008140033",
  "linkReferences": {},
  "deployedLinkReferences": {}
}